:100000000C945C000C9479000C9479000C947900A9
:100010000C9479000C9479000C9479000C9479007C
:100020000C9479000C9479000C9479000C9479006C
:100030000C9479000C9479000C9479000C9479005C
:100040000C9404010C9479000C9479000C947900C0
:100050000C9479000C9479000C9479000C9479003C
:100060000C9479000C947900000000080002010053
:100070000003040700000000000000000000000072
:10008000250028002B0000000000240027002A0083
:10009000040404040404040402020202020203032E
:1000A0000303030301020408102040800102040836
:1000B000102001020408102011241FBECFEFD8E049
:1000C000DEBFCDBF11E0A0E0B1E0ECE3F4E002C0A0
:1000D00005900D92AA30B107D9F721E0AAE0B1E06E
:1000E00001C01D92A331B207E1F70E944E010C94AA
:1000F0001C020C94000090E0FC01E859FF4F249191
:10010000FC01EC55FF4F3491FC01E057FF4FE491A7
:10011000EE23C9F0222339F0233001F1A8F4213075
:1001200019F1223029F1F0E0EE0FFF1FE458FF4FE4
:10013000A591B4918FB7F894EC91611126C03095D8
:100140003E233C938FBF08952730A9F02830C9F093
:10015000243049F7809180008F7D03C0809180001A
:100160008F7780938000DFCF84B58F7784BDDBCF1E
:1001700084B58F7DFBCF8091B0008F778093B000E6
:10018000D2CF8091B0008F7DF9CF3E2BDACF3FB731
:10019000F89480910F0190911001A0911101B091FC
:1001A000120126B5A89B05C02F3F19F00196A11D8D
:1001B000B11D3FBFBA2FA92F982F8827BC01CD01B1
:1001C000620F711D811D911D42E0660F771F881F10
:1001D000991F4A95D1F70895CF92DF92EF92FF923F
:1001E0000E94C7006B017C010E94C7006C197D0949
:1001F0008E099F09683E734081059105A8F3FF9021
:10020000EF90DF90CF9008951F920F920FB60F924C
:1002100011242F933F938F939F93AF93BF9380911C
:100220000B0190910C01A0910D01B0910E01309144
:100230000A0123E0230F2D3758F50196A11DB11DAA
:1002400020930A0180930B0190930C01A0930D0160
:10025000B0930E0180910F0190911001A0911101B6
:10026000B09112010196A11DB11D80930F019093D1
:100270001001A0931101B0931201BF91AF919F9112
:100280008F913F912F910F900FBE0F901F90189557
:1002900026E8230F0296A11DB11DD2CF789484B514
:1002A000826084BD84B5816084BD85B5826085BD72
:1002B00085B5816085BD80916E00816080936E0000
:1002C00010928100809181008260809381008091F2
:1002D00081008160809381008091800081608093A3
:1002E00080008091B10084608093B1008091B00063
:1002F00081608093B00080917A00846080937A005E
:1003000080917A00826080937A0080917A00816087
:1003100080937A0080917A00806880937A001092AE
:10032000C10030E020E0F901EC55FF4F4491F901A4
:10033000E057FF4F8491882399F090E0880F991F30
:10034000FC01EA57FF4FA591B491FC01E458FF4F1F
:10035000859194918FB7F894EC91E42BEC938FBF37
:100360002F5F3F4F2A303105F1F63AE0C32ED12CF2
:1003700040E0A42E40E0B42ED0E0C0E0CE01B601B3
:100380000E94F40124E6822E912C9C0120503F4FC4
:1003900079018B0100501F4F61E089E00E947B00D2
:1003A000F70180818BB960E088E00E947B000E94A9
:1003B000EC0061E088E00E947B00F80180818BB94D
:1003C00060E089E00E947B000E94EC00F1E08F1A5F
:1003D000910811F72196C436D10581F6A114B10414
:1003E00059F20E940000C8CF97FB072E16F4009424
:1003F00007D077FD09D00E94080207FC05D03EF423
:10040000909581959F4F0895709561957F4F0895C0
:10041000AA1BBB1B51E107C0AA1FBB1FA617B7072A
:1004200010F0A61BB70B881F991F5A95A9F7809546
:0C0430009095BC01CD010895F894FFCF19
:0A043C00FC60DAF266B6BEE0FEF6E0
:00000001FF
