:100000000C9462000C948A000C948A000C948A0070
:100010000C948A000C948A000C948A000C948A0038
:100020000C948A000C948A000C948A000C948A0028
:100030000C948A000C948A000C948A000C948A0018
:100040000C94EE050C948A000C948A000C948A009F
:100050000C948A000C948A000C948A000C948A00F8
:100060000C9438060C948A0000000000240027003D
:100070002A0000000000250028002B0000000000DE
:1000800023002600290004040404040404040202DA
:100090000202020203030303030301020408102007
:1000A0004080010204081020010204081020000012
:1000B0000008000201000003040700000000000027
:1000C0000000570711241FBECFEFD8E0DEBFCDBF21
:1000D00011E0A0E0B1E0ECE2FAE102C005900D927F
:1000E000A434B107D9F722E0A4E4B1E001C01D9225
:1000F000A233B207E1F710E0C2E6D0E004C02197D6
:10010000FE010E94360AC136D107C9F70E94850751
:100110000C94140D0C94000008950895AF92BF92B2
:10012000CF92DF92EF92FF920F931F93CF93DF93C3
:100130006C017B018B01040F151FEB015E01AE18F2
:10014000BF08C017D10759F06991D601ED91FC9114
:100150000190F081E02DC6010995892B79F7C50141
:10016000DF91CF911F910F91FF90EF90DF90CF9093
:10017000BF90AF900895833081F028F4813099F0DA
:100180008230A9F008958730A9F08830C9F0843012
:10019000B1F4809180008F7D03C0809180008F77C3
:1001A00080938000089584B58F7784BD089584B5C9
:1001B0008F7DFBCF8091B0008F778093B000089542
:1001C0008091B0008F7DF9CFCF93DF93282F30E05F
:1001D000F901E255FF4F8491F901E656FF4FD491A2
:1001E000F901EA57FF4FC491CC23A1F081110E947D
:1001F000BB00EC2FF0E0EE0FFF1FE458FF4FA5917E
:10020000B491EC91ED2381E090E009F480E0DF917E
:10021000CF91089580E090E0FACF1F93CF93DF93C2
:10022000282F30E0F901E255FF4F8491F901E6569D
:10023000FF4FD491F901EA57FF4FC491CC23A9F0A5
:10024000162F81110E94BB00EC2FF0E0EE0FFF1F74
:10025000EE58FF4FA591B4918FB7F894EC9111111E
:1002600008C0D095DE23DC938FBFDF91CF911F9123
:100270000895DE2BF8CFCF93DF9390E0FC01E65694
:10028000FF4F24918A579F4FFC0184918823D1F01E
:1002900090E0880F991FFC01E859FF4FA591B49198
:1002A000FC01EE58FF4FC591D491623071F49FB7B5
:1002B000F8943C91822F809583238C93E8812E2B98
:1002C00028839FBFDF91CF9108958FB7F894EC9169
:1002D0002E2B2C938FBFF6CF3FB7F89480918D01D2
:1002E00090918E01A0918F01B091900126B5A89BAD
:1002F00005C02F3F19F00196A11DB11D3FBFBA2FB8
:10030000A92F982F8827BC01CD01620F711D811D77
:10031000911D42E0660F771F881F991F4A95D1F7FC
:1003200008958F929F92AF92BF92CF92DF92EF92F9
:10033000FF924B015C010E946C016B017C010E94E9
:100340006C016C197D098E099F09683E7340810517
:100350009105A8F321E0821A9108A108B10888EE5E
:10036000C80E83E0D81EE11CF11C81149104A10485
:10037000B10429F7FF90EF90DF90CF90BF90AF903E
:100380009F908F90089520916501260F3327331F8A
:1003900021323105ECF42091E401FC0190E080E091
:1003A000243069F082E00895A09165012191AC01AB
:1003B0004B5B5E4FA40FB52FB11D2C930196861792
:1003C00098F380916501680F6093650180E008955E
:1003D00081E008951092E40181E08093E30110929E
:1003E000BE0161E082E10E940D0161E083E10E94B3
:1003F0000D01E9EBF0E080818E7F808380818D7F2D
:10040000808388E48093B80085E48093BC000895DD
:10041000CF93DF9391E0909344018823B9F0C0918A
:10042000B800D091BA008091BC008A7B8093BC0058
:1004300060E082E10E940D0160E083E10E940D0115
:100440000E94EA01D093BA00C093B800DF91CF9127
:1004500008958F929F92AF92BF92CF92DF92EF92C8
:10046000FF920F931F93CF93DF93D0910D02D13260
:1004700008F0D7C0182FC0910C020E946C016B01CC
:100480007C018091E40181116BC082E08093E401E2
:100490001093E3018FEF8093E2011092E101D0937A
:1004A000E001ACEEB1E0E0ECF1E080E0D81391C007
:1004B0001092BF018091BF01CC0FC82BC093BF0128
:1004C0008091BE01813009F088C01092BE010E9467
:1004D0006C016B017C018091BF018093BB00809116
:1004E000E6019091E701A091E801B091E901892B23
:1004F0008A2B8B2BA1F00E946C010091E6011091D8
:10050000E7012091E8013091E9016C197D098E091C
:100510009F09061717072807390708F442C080917A
:10052000BC0083FDD8CF85EC8093BC000E946C0199
:100530006B017C018091E401823009F450C080910C
:10054000E2018F3F09F46FC08091E201803209F42B
:100550006CC08091E201803309F469C084E026C058
:100560008091E6019091E701A091E801B091E90145
:10057000892B8A2B8B2B09F484CF0E946C018090ED
:10058000E6019090E701A090E801B090E9016C19B4
:100590007D098E099F0986169706A806B90608F0F8
:1005A00070CF8091E5010E94080285E01092EB0176
:1005B00010920D021092EA01DF91CF911F910F91DD
:1005C000FF90EF90DF90CF90BF90AF909F908F9073
:1005D00008959D9191938F5F69CF85EEA5CF80910E
:1005E000E6019091E701A091E801B091E901892B22
:1005F0008A2B8B2B09F49ECF0E946C010091E6019F
:100600001091E7012091E8013091E9016C197D0911
:100610008E099F09061717072807390708F08ACFA0
:10062000C0CF81E0C3CF80E0C1CF82E0BFCF83E005
:10063000BDCF0895E091960180919501E81730F4BF
:10064000F0E0E956FE4F808190E008958FEF9FEF34
:10065000089590919601809195012FEF3FEF9817A3
:1006600048F4E92FF0E0E956FE4F208130E09F5F2B
:1006700090939601C90108958091950190919601FA
:10068000891B990B0895CF92DF92EF92FF920F93FF
:100690001F93CF93DF937C01CB018A012091EA0164
:1006A000222389F0EB016B01C40ED51ECC15DD05AC
:1006B00069F06991D701ED91FC910190F081E02DF5
:1006C000C7010995F3CF642F0E94C301C801DF91D0
:1006D000CF911F910F91FF90EF90DF90CF900895F1
:1006E000CF93DF931F92CDB7DEB769832091EA01E4
:1006F0002223F9F020910D02203258F021E030E061
:10070000FC013383228390E080E00F90DF91CF9152
:1007100008958091EB01E82FF0E0E451FE4F9981BC
:1007200090838F5F8093EB0180930D0281E090E0D6
:10073000ECCF61E0CE0101960E94C301F7CF682F94
:100740008EE092E00C947003089590E080E00895AC
:10075000CF93CAE088E00E94E400892B69F089E029
:100760000E94E400892B41F069E170E080E090E0B4
:100770000E949101C15071F7CF910895FC01019041
:100780000020E9F73197AF01481B590BBC018AE102
:1007900092E00C948E00CF93DF93EC0160E08E81A9
:1007A0000E940D0161E08E810E940D0160E08E814A
:1007B0000E940D018BE891E00197F1F7DF91CF9155
:1007C0000895CF92DF92EF92FF920F931F93CF93F2
:1007D000DF936C017C0187E0E80EF11CD0E0C0E003
:1007E000062F10E0B8010C2E02C0759567950A948B
:1007F000E2F76170F70181917F010E940D0121965E
:10080000C430D10579F7C601DF91CF911F910F91C7
:10081000FF90EF90DF90CF900C94CB03CF92DF92BC
:10082000EF92FF920F931F93CF93DF93EC01F62E7D
:10083000642F8C810E940D018D818F3F19F060E043
:100840000E940D010F2D10E08F8584FF25C06E01E1
:1008500087E0C80ED11CF12CE12CB8010E2C02C08F
:10086000759567950A94E2F76170F60181916F01C1
:100870000E940D01FFEFEF1AFF0A88E0E816F1046D
:1008800061F7CE01DF91CF911F910F91FF90EF9013
:10089000DF90CF900C94CB03B80184E075956795F9
:1008A0008A95E1F7CE010E94E1036F2DCE01DF9121
:1008B000CF911F910F91FF90EF90DF90CF900C940C
:1008C000E10340E0682F8AE192E00C940E04CF939C
:1008D000DF93823029F49091290298609093290245
:1008E00080932D0210922E0280E480932F0280E1EB
:1008F0008093300280E58093310261E080911E0296
:100900000E943B0180911F028F3F19F061E00E941D
:100910003B0161E0809120020E943B01CAE1D2E0EC
:100920009E012A5132408091290284FD0BC084E04F
:1009300090E021962817390744F461E08E810E94E7
:100940003B01EECF88E090E0F4CF8BE39DE0019790
:10095000F1F760E080911E020E940D0160E080913D
:1009600020020E940D0180911F028F3F19F060E06C
:100970000E940D018091290284FD39C063E08AE163
:1009800092E00E94E103CBE4D6E4CE010197F1F7B7
:1009900063E08AE192E00E94E1032197F1F763E0CE
:1009A0008AE192E00E94E10383E592E00197F1F78A
:1009B00062E08AE192E00E94E10380912902806274
:1009C0000E94610484E080932A028CE00E9461040A
:1009D00081E00E9461048BE39FE10197F1F782E0DF
:1009E00080932B0286E0DF91CF910C9461048062AA
:1009F0000E9461048BE496E40197F1F7809129024B
:100A000080620E94610483E592E00197F1F7809192
:100A1000290280620E946104D0CF90912D02691753
:100A200010F06FEF690FE62FF0E0E65EFD4F94895E
:100A3000890F80680C94610441E00E940E0481E0FB
:100A400090E0089585ED8093BC008091E60190913F
:100A5000E701A091E801B091E9010796A11DB11D40
:100A600023E0B695A795979587952A95D1F720917C
:100A7000BC0024FD03C01092E40108954091E601FA
:100A80005091E7016091E8017091E901452B462BF7
:100A9000472B69F30097A105B10541F02AE22A9599
:100AA000F1F700C00197A109B109E1CF8091E501FB
:100AB0000C940802BF92CF92DF92EF92FF920F93B5
:100AC0001F93CF93DF9300D01F92CDB7DEB7082FCF
:100AD000B62E142F88E00E94E400892BD9F3CE01B2
:100AE00001967C018CE3C82E81E0D82E89E00E941B
:100AF000E400892BC9F51F5F8091BD0181111EC0E3
:100B0000183100F51F921F93DF92CF92FF92EF9260
:100B10000E943C0A6B2D802F0E940D05C7010E9488
:100B2000BE0368EC70E080E090E00E9491010F90BD
:100B30000F900F900F900F900F90D8CF813021F42D
:100B40001C3300F310E0DECF823021F41032D0F2FB
:100B500011E0D8CF833019F41D30A0F2F9CF8430E2
:100B600089F6143678F2EECF6B2D802F0E940D059A
:100B700081E491E00E94BE030E94A8031F921F938C
:100B8000DF92CF92FF92EF920E943C0A6B2D802F52
:100B90000E940D05C7010E94BE030E94A80388E0C1
:100BA0000E94E4000F900F900F900F900F900F9005
:100BB000892B09F09BCF8091BD018F5F8093BD0190
:100BC000812F0F900F900F90DF91CF911F910F9178
:100BD000FF90EF90DF90CF90BF9008951F920F92FB
:100BE0000FB60F9211242F933F938F939F93AF9340
:100BF000BF938091890190918A01A0918B01B0915E
:100C00008C013091880123E0230F2D3758F5019690
:100C1000A11DB11D209388018093890190938A01C1
:100C2000A0938B01B0938C0180918D0190918E01E6
:100C3000A0918F01B09190010196A11DB11D8093EB
:100C40008D0190938E01A0938F01B0939001BF917D
:100C5000AF919F918F913F912F910F900FBE0F9069
:100C60001F90189526E8230F0296A11DB11DD2CF23
:100C70001F920F920FB60F9211242F933F934F9311
:100C80005F936F937F938F939F93AF93BF93EF93F4
:100C9000FF938091B900887F803609F44AC0F0F54F
:100CA000883209F4A7C018F5803109F49BC0B8F464
:100CB000882309F4F9C0883009F494C0FF91EF91BA
:100CC000BF91AF919F918F917F916F915F914F9164
:100CD0003F912F910F900FBE0F901F901895883164
:100CE00009F488C0803251F78093E20114C0803447
:100CF00009F49DC040F48033B9F38833F9F680934A
:100D0000E20185ECB0C0803509F485C0883509F46E
:100D100096C0883499F60E942205D0CF883909F40C
:100D20008CC038F5883729F050F4883611F08037B8
:100D300029F683E08093E4011092870157C0883838
:100D400009F47BC0803919F0803809F0B7CF809161
:100D50008701803208F071C0E091870181E08E0F39
:100D6000809387018091BB00F0E0E959FE4F8083BA
:100D70003DC0803B39F0E0F4803A09F479C0883A0C
:100D800009F09CCF84E08093E401109266011092F8
:100D90006501E0919301F0919401099580916501BD
:100DA00081110FC081E0809365011092450109C057
:100DB000803C09F4A6CF883C09F4A3CF883B09F016
:100DC0007DCFE091660181E08E0F80936601F0E0B7
:100DD000EB5BFE4F80818093BB0090916601809118
:100DE000650129C08091BF018093BB0085EC809391
:100DF000BC0064CF9091E1018091E001981758F513
:100E0000E091E10181E08E0F8093E101F0E0E05498
:100E1000FE4F8081E9CFE091E10181E08E0F809368
:100E2000E1018091BB00F0E0E054FE4F808390919F
:100E3000E1018091E0019817C8F285E8D8CFE091F0
:100E4000E10181E08E0F8093E1018091BB00F0E031
:100E5000E054FE4F80838091E30181115CCF81E0FB
:100E60008093BE0184EA8093BC001092E40126CFF7
:100E700085EC8093BC001092E40180918701803260
:100E800030F4E0918701F0E0E959FE4F1082609163
:100E9000870170E0E0919101F091920187E691E085
:100EA0000995109287010ACF1092E20134CFEEE04B
:100EB000F2E01382128288EE93E0A0E0B0E0848337
:100EC0009583A683B78382E291E091838083EAE1F0
:100ED000F2E01382128284E391E09183808387E0C1
:100EE00084838FEF858386E0868385E0878384E033
:100EF000808783E0818782E0828713861486158647
:100F00001686178681E00C946704789484B5826015
:100F100084BD84B5816084BD85B5826085BD85B59D
:100F2000816085BD80916E00816080936E0010921B
:100F30008100809181008260809381008091810096
:100F40008160809381008091800081608093800027
:100F50008091B10084608093B1008091B000816085
:100F60008093B00080917A00846080937A008091B1
:100F70007A00826080937A0080917A008160809309
:100F80007A0080917A00806880937A001092C10084
:100F900062E088E00E943B0162E089E00E943B0140
:100FA00082E00E94670410929601109295011092BF
:100FB000EB0110920D020E94EA018CE890E0909300
:100FC0009401809393018DE890E090939201809337
:100FD0009101AAE07A2EB5EE2B2EC5EC3C2ED0E086
:100FE0008D2ED0E09D2E18E6612E55245A9406E0F1
:100FF000402E88E00E94E400892B09F092C01092F4
:10100000BD014091BC0160E085E00E945A058093DB
:10101000BC014091BB0160E088E00E945A058093CA
:10102000BB014091BA0161E085E00E945A058093BE
:10103000BA014091B90161E088E00E945A058093AD
:10104000B9014091B80161E08DE00E945A05282F56
:101050008091BB01672D0E942A0A8295807FF82E1D
:10106000F90EF092BB018091BC010E942A0A829580
:10107000807F082F090F0093BC018091BA010E9464
:101080002A0A8295807F182F190F1093BA01809138
:10109000B9010E942A0A8295807FD82FD90FD09358
:1010A000B901822F0E942A0A8295807FC82FC90F1A
:1010B000C093B80181E08093EA0160920C02109223
:1010C000EB0110920D0290E080E00E949F0390E0FF
:1010D00080E00E949F036F2D8EE092E00E947003DB
:1010E000602F8EE092E00E94700381E090E00E9409
:1010F0009F03612F8EE092E00E9470036D2F8EE0BF
:1011000092E00E9470036C2F8EE092E00E947003C8
:1011100081E00E94290268EC70E080E090E00E948B
:10112000910181E08093EA0160920C021092EB0140
:1011300010920D0290E080E00E949F0380E00E94E8
:1011400029020E946C016B017C018091E4018111F4
:1011500062C081E08093E4018093E3015092E20158
:101160001092E1014092E0018093BF018091BF01A4
:10117000806D8093BF018091BE01813009F043C131
:101180001092BE010E946C016B017C018091BF0135
:101190008093BB008091E6019091E701A091E80166
:1011A000B091E901892B8A2B8B2BA1F00E946C0155
:1011B0000091E6011091E7012091E8013091E901E9
:1011C0006C197D098E099F0906171707280739072B
:1011D00008F442C08091BC0083FDD8CF3092BC009F
:1011E0000E946C016B017C018091E401813009F463
:1011F0000DC18091E101873008F02AC18091E101A1
:10120000A0ECB1E0E7E9F1E090E0981751F12D9101
:1012100021939F5FFACF8091E6019091E701A09121
:10122000E801B091E901892B8A2B8B2B09F48DCF32
:101230000E946C010091E6011091E7012091E80104
:101240003091E9016C197D098E099F09061717076E
:101250002807390708F079CF8091E5010E9408023C
:1012600080E010929601809395018EE092E00E94BA
:1012700029035C018EE092E00E9429036C018EE05C
:1012800092E00E9429037C018EE092E00E942903F3
:101290008EE092E00E942903EC018EE092E00E9431
:1012A00029038C018EE092E00E9429039C01A50194
:1012B00084E0559547958A95E1F74F7055278A2D1B
:1012C0008F70749E800D11248093B701A60194E065
:1012D000559547959A95E1F74F7055279C2D9F702E
:1012E000C92E749EC00C1124C092BB01A70164E0FA
:1012F000559547956A95E1F74F7055279E2D9F703C
:10130000E92E749EE00C1124E092BC01AE0174E061
:10131000559547957A95E1F74F705527CF70749E94
:10132000C00D1124C093BA01A801E4E0559547957A
:10133000EA95E1F74F7055270F70749E000D112448
:101340000093B901A901F4E055954795FA95E1F7A5
:101350004F7055272F70749E200D11242093B801D3
:10136000672D0E942A0A905D90931C01805D8093F6
:101370001B018C2D0E942A0A905D90931901805DBB
:10138000809318018E2D0E942A0A905D9093160179
:10139000805D80931501822F0E942A0A905D9093B0
:1013A0000E01805D80930D01802F0E942A0A905DBE
:1013B00090930901805D809308018C2F0E942A0A76
:1013C000905D90930601805D8093050160E080E070
:1013D0000E940D0580E191E00E94BE0361E080E083
:1013E0000E940D0580E091E00E94BE0362E370E080
:1013F00080E090E00E9491018114910409F4F9CDFC
:101400000E940000F6CD2092BC00EACE8091E60159
:101410009091E701A091E801B091E901892B8A2B15
:101420008B2B09F4E1CE0E946C010091E601109132
:10143000E7012091E8013091E9016C197D098E09DD
:101440009F09061717072807390708F0CDCE04CFE4
:1014500087E0D6CE991B79E004C0991F961708F053
:10146000961B881F7A95C9F780950895EE0FFF1F88
:101470000590F491E02D0994AEE0B0E0E2E4FAE0EA
:101480000C94EB0C0D891E8986E08C831A830983EA
:101490008FEF9FE79E838D83AE01475E5F4F6F891D
:1014A000788DCE0101960E945F0A2F813885020F48
:1014B000131FF80110822E96E4E00C94070DABE0A8
:1014C000B0E0E5E6FAE00C94DD0C7C013B018A011A
:1014D000FC0117821682838181FFC8C1CE0101966B
:1014E0005C01F7019381F30193FD859193FF819155
:1014F0003F01882309F453C1853239F493FD859166
:1015000093FF81913F01853229F4B70190E00E9459
:101510004F0CE7CF912C212C312CFFE1F31538F043
:101520008B3211F190F4803209F1833229F137FCCA
:101530003CC020ED280F2A3050F536FE20C08AE04E
:10154000989E200D1124922E06C08D3291F080338A
:1015500071F7689430F8F30193FD859193FF8191C1
:101560003F018111DACF21C0689431F8689432F8D4
:10157000F2CF689433F8EFCF689434F8ECCFEAE018
:101580002E9E200D1124222E689435F8E4CF8E3241
:1015900029F436FC04C1689436F8DDCF8C3619F492
:1015A000689437F8D8CF8836B1F2982F9F7D95543C
:1015B0009330E0F08336A1F18337C1F1833509F030
:1015C00063C02801F2E04F0E511CF801C080D180A9
:1015D000692D70E036FC02C06FEF7FEFC6010E94FC
:1015E000390C4C01689437F882010AC00C5F1F4F18
:1015F000FFE3F98388248394912C6501E89437F8FC
:1016000033FE2DC0522C8114910471F5552009F43C
:1016100068CFB70180E290E00E944F0C5A94F6CF59
:10162000F801808189830E5F1F4FE4CF2801F2E02B
:101630004F0E511CF801C080D180692D70E036FC3E
:1016400002C06FEF7FEFC6010E94440C4C01820183
:10165000D5CFB70180E290E00E944F0C2A94281465
:10166000190409F0B0F7CECFF60137FC859137FEAB
:1016700081916F01B70190E00E944F0C51105A9474
:10168000F1E08F1A9108BFCF843619F0893609F03E
:1016900077C0F80137FE6BC06081718182819381D0
:1016A0000C5F1F4FF32DFF763F2E97FF09C09095DB
:1016B0008095709561957F4F8F4F9F4F689437F855
:1016C0002AE030E0A5010E947F0CC82ECA188C2C9D
:1016D000432C36FE0CC0E89440F8C91440F434FEA4
:1016E00005C032FC03C0F32DFE7E4F2E892C44FE34
:1016F00095C0FE01EC0DF11D8081803309F087C09B
:10170000242D297E422E842D8870582E43FC95C0AE
:1017100040FE8FC09C2C821418F42C0C922C98182C
:1017200044FE91C0B70180E390E00E944F0C42FE5E
:1017300009C088E790E041FE02C088E590E0B7016B
:101740000E944F0CC91408F48AC0CA94D12C9FEF90
:10175000C91AD90ACA0CDB1CF60182916F01B701C4
:1017600090E00E944F0CAC14BD04B1F74FCF6081E4
:101770007181072E000C880B990B0E5F1F4F92CFC3
:10178000D32CE894D4F82AE030E0853739F1232DC2
:10179000297FD22E8F3601F148F48835A9F0F70160
:1017A000868197812B96E2E10C94F90C803749F001
:1017B0008837A9F7D4FE02C06894D2F820E130E05F
:1017C0000DC06894D4F8F6CF34FE03C0822F866033
:1017D000D82E20E132E002C028E030E0F801D7FE48
:1017E0000FC060817181828193810C5F1F4FA501C1
:1017F0000E947F0CC82ECA183D2CE89437F867CF9A
:101800006081718190E080E00E5F1F4FF0CF42FC5D
:1018100002C0839478CF8394839475CF842D867887
:1018200009F471CFF6CFB70180E290E00E944F0C2F
:1018300083948214C0F3512C73CF522C5818821405
:1018400008F46ECFF8CF842D867809F47BCF8BE235
:1018500041FE80E247FC8DE2B70190E071CFB70115
:1018600080E390E00E944F0C9A946CCF8FEF9FEF33
:1018700099CFFC010590615070400110D8F7809518
:1018800090958E0F9F1F0895FC016150704001904C
:101890000110D8F7809590958E0F9F1F08950F9394
:1018A0001F93CF93DF93182F092FEB018B8181FDBD
:1018B00009C01FEF0FEF812F902FDF91CF911F9164
:1018C0000F91089582FF14C02E813F818C819D81EC
:1018D000281739073CF4E881F981CF0101969983F3
:1018E000888310838E819F8101969F838E83E3CFAF
:1018F000E885F985812F0995892BA1F3DACFFA01C3
:10190000AA27283051F1203181F1E8946F936E7F3E
:101910006E5F7F4F8F4F9F4FAF4FB1E03ED0B4E02F
:101920003CD0670F781F891F9A1FA11D680F791F70
:101930008A1F911DA11D6A0F711D811D911DA11D81
:1019400020D009F468943F912AE0269F1124301991
:10195000305D3193DEF6CF010895462F4770405D2C
:101960004193B3E00FD0C9F7F6CF462F4F70405DDB
:101970004A3318F0495D31FD4052419302D0A9F736
:10198000EACFB4E0A6959795879577956795BA9530
:10199000C9F700976105710508959B01AC010A2EF6
:1019A00006945795479537952795BA95C9F7620FCD
:1019B000731F841F951FA01D08952F923F924F9271
:1019C0005F926F927F928F929F92AF92BF92CF92CF
:1019D000DF92EF92FF920F931F93CF93DF93CDB7D8
:1019E000DEB7CA1BDB0B0FB6F894DEBF0FBECDBF50
:1019F00009942A88398848885F846E847D848C8421
:101A00009B84AA84B984C884DF80EE80FD800C8129
:101A10001B81AA81B981CE0FD11D0FB6F894DEBF0C
:0C1A20000FBECDBFED010895F894FFCF7C
:101A2C00444154453A20202F20202F3230202000D2
:101A3C0054494D453A20203A20203A2020000000FD
:101A4C00000070034303A50319033C0329031A0385
:101A5C00000000001C058E00A503A4032530327580
:041A6C000020200036
:00000001FF
