:020000040000FA
:100000000C9462000C948A000C948A000C948A0070
:100010000C948A000C948A000C948A000C948A0038
:100020000C948A000C948A000C948A000C948A0028
:100030000C948A000C948A000C948A000C948A0018
:100040000C9453040C948A000C948A000C948A003B
:100050000C948A000C948A000C948A000C948A00F8
:100060000C949D040C948A000000000024002700DA
:100070002A0000000000250028002B0000000000DE
:1000800023002600290004040404040404040202DA
:100090000202020203030303030301020408102007
:1000A0004080010204081020010204081020000012
:1000B0000008000201000003040700000000000027
:1000C0000000BC0511241FBECFEFD8E0DEBFCDBFBE
:1000D00011E0A0E0B1E0EAECFFE002C005900D9273
:1000E000A438B107D9F722E0A4E8B1E001C01D921D
:1000F000AD36B207E1F710E0C2E6D0E004C02197C8
:10010000FE010E94DD07C136D107C9F70E94DC0558
:100110000C94E3070C94000008950895AF92BF92E9
:10012000CF92DF92EF92FF920F931F93CF93DF93C3
:100130006C017B018B01040F151FEB015E01AE18F2
:10014000BF08C017D10759F06991D601ED91FC9114
:100150000190F081E02DC6010995892B79F7C50141
:10016000DF91CF911F910F91FF90EF90DF90CF9093
:10017000BF90AF900895833081F028F4813099F0DA
:100180008230A9F008958730A9F08830C9F0843012
:10019000B1F4809180008F7D03C0809180008F77C3
:1001A00080938000089584B58F7784BD089584B5C9
:1001B0008F7DFBCF8091B0008F778093B000089542
:1001C0008091B0008F7DF9CFCF93DF93282F30E05F
:1001D000F901E255FF4F8491F901E656FF4FD491A2
:1001E000F901EA57FF4FC491CC23A1F081110E947D
:1001F000BB00EC2FF0E0EE0FFF1FE458FF4FA5917E
:10020000B491EC91ED2381E090E009F480E0DF917E
:10021000CF91089580E090E0FACF1F93CF93DF93C2
:10022000282F30E0F901E255FF4F8491F901E6569D
:10023000FF4FD491F901EA57FF4FC491CC23A9F0A5
:10024000162F81110E94BB00EC2FF0E0EE0FFF1F74
:10025000EE58FF4FA591B4918FB7F894EC9111111E
:1002600008C0D095DE23DC938FBFDF91CF911F9123
:100270000895DE2BF8CFCF93DF9390E0FC01E65694
:10028000FF4F24918A579F4FFC0184918823D1F01E
:1002900090E0880F991FFC01E859FF4FA591B49198
:1002A000FC01EE58FF4FC591D49161110EC09FB76C
:1002B000F8948C91E22FE0958E238C932881E22391
:1002C000E8839FBFDF91CF9108958FB7F894EC91A9
:1002D000E22BEC938FBFF6CF3FB7F89480913702B3
:1002E00090913802A0913902B0913A0226B5A89BAC
:1002F00005C02F3F19F00196A11DB11D3FBFBA2FB8
:10030000A92F982F8827BC01CD01620F711D811D77
:10031000911D42E0660F771F881F991F4A95D1F7FC
:1003200008958F929F92AF92BF92CF92DF92EF92F9
:10033000FF924B015C010E946C016B017C010E94E9
:100340006C016C197D098E099F09683E7340810517
:100350009105A8F321E0821A9108A108B10888EE5E
:10036000C80E83E0D81EE11CF11C81149104A10485
:10037000B10429F7FF90EF90DF90CF90BF90AF903E
:100380009F908F90089508952091C501260F3327DF
:10039000331F21323105ECF420910E02FC0190E074
:1003A00080E0243069F082E00895A091C501219198
:1003B000AC014B555E4FA40FB52FB11D2C93019688
:1003C000861798F38091C501680F6093C50180E09E
:1003D000089581E0089510920E0281E080930D024D
:1003E0001092E80161E082E10E940D0161E083E189
:1003F0000E940D01E9EBF0E080818E7F8083808197
:100400008D7F808388E48093B80085E48093BC006E
:100410000895CF93DF9391E09093A4018823B9F0DE
:10042000C091B800D091BA008091BC008A7B8093C3
:10043000BC0060E082E10E940D0160E083E10E9467
:100440000D010E94EB01D093BA00C093B800DF9178
:10045000CF9108950895E091420280914102E817FA
:1004600030F4F0E0EC57FE4F808190E008958FEF7C
:100470009FEF089590914202809141022FEF3FEF4C
:10048000981748F4E92FF0E0EC57FE4F208130E058
:100490009F5F90934202C90108958091410290911B
:1004A0004202891B990B0895CF92DF92EF92FF923F
:1004B0000F931F93CF93DF937C01CB018A0120918F
:1004C0001402222389F0EB016B01C40ED51ECC155A
:1004D000DD0569F06991D701ED91FC910190F08102
:1004E000E02DC7010995F3CF642F0E94C401C80114
:1004F000DF91CF911F910F91FF90EF90DF90CF9000
:100500000895CF93DF931F92CDB7DEB76983209113
:1005100014022223F9F020913F02203258F021E00A
:1005200030E0FC013383228390E080E00F90DF9184
:10053000CF91089580914002E82FF0E0EB5EFD4FEF
:10054000998190838F5F8093400280933F0281E086
:1005500090E0ECCF61E0CE0101960E94C401F7CF9C
:10056000CF92DF92EF92FF920F931F93CF93DF937F
:10057000FC01C48121E020931402C0933502109243
:10058000400210923F028385682B85E592E00E942D
:100590008102D0913F02D13208F092C00E946C01DA
:1005A0006B017C0180910E02811165C082E0809315
:1005B0000E0281E080930D028FEF80930C02109267
:1005C0000B02D0930A02A5E1B2E0EAEEF1E080E08E
:1005D000D81385C01092E9018091E901CC0FC82B96
:1005E000C093E9018091E801813009F07CC010924C
:1005F000E8010E946C016B017C018091E90180930C
:10060000BB008091100290911102A0911202B09152
:100610001302892B8A2B8B2B99F00E946C0100917D
:1006200010021091110220911202309113026C19E4
:100630007D098E099F090617170728073907E0F17A
:100640008091BC0083FDD9CF85EC8093BC000E94D3
:100650006C016B017C0180910E02823009F445C06F
:1006600080910C028F3F61F180910C02803241F148
:1006700080910C0225C08091100290911102A091EE
:100680001202B0911302892B8A2B8B2B09F48ACF8B
:100690000E946C010091100210911102209112022F
:1006A000309113026C197D098E099F0906171707EF
:1006B0002807390708F076CF80910F020E940902BF
:1006C0001092400210923F0210921402DF91CF91DB
:1006D0001F910F91FF90EF90DF90CF9008959D9123
:1006E00091938F5F75CF85EEB0CF8091100290917E
:1006F0001102A0911202B0911302892B8A2B8B2B2D
:1007000009F4A9CF0E946C0100911002109111020E
:1007100020911202309113026C197D098E099F09F4
:10072000061717072807390708F095CFC5CF90E0BF
:1007300080E00895FC0101900020E9F73197AF01B6
:10074000481B590BBC0181E692E00C948E000F937C
:100750001F93CF938C01C62F0E94B0026C2F646050
:10076000C8010E94B0026C2F6B7FC8010E94B002CA
:1007700083EC90E00197F1F7CF911F910F910895CD
:100780000F931F93CF93DF938C01D62FC42F607FDD
:10079000642B0E94A70380E1D89FB00111246C2B29
:1007A000C801DF91CF911F910F910C94A703CF93B4
:1007B000DF93CDB7DEB728970FB6F894DEBF0FBE34
:1007C000CDBF98E0E1E0F1E0DE01119601900D92DD
:1007D0009A95E1F790916902961708F46FEF262F2A
:1007E00030E0220F331F41E050E04C0F5D1F240F1B
:1007F000351FF9016081680F606840E081E692E092
:1008000028960FB6F894DEBF0FBECDBFDF91CF9113
:100810000C94C00340E061E081E692E00E94C003D6
:100820008BE39FE10197F1F7089541E00E94C00337
:1008300081E090E0089585ED8093BC0080911002E6
:1008400090911102A0911202B09113020796A11D7E
:10085000B11D23E0B695A795979587952A95D1F771
:100860002091BC0024FD03C010920E020895409117
:100870001002509111026091120270911302452BE7
:10088000462B472B69F30097A105B10541F02AE2F9
:100890002A95F1F700C00197A109B109E1CF809134
:1008A0000F020C9409021F920F920FB60F9211249F
:1008B0002F933F938F939F93AF93BF938091430266
:1008C00090914402A0914502B091460230913602C7
:1008D00023E0230F2D3758F50196A11DB11D20935C
:1008E00036028093430290934402A0934502B09352
:1008F00046028091370290913802A0913902B0915E
:100900003A020196A11DB11D8093370290933802DF
:10091000A0933902B0933A02BF91AF919F918F910A
:100920003F912F910F900FBE0F901F90189526E8C2
:10093000230F0296A11DB11DD2CF1F920F920FB6A9
:100940000F9211242F933F934F935F936F937F9355
:100950008F939F93AF93BF93EF93FF938091B900D1
:10096000887F803609F44AC0F0F5883209F4A7C0C0
:1009700018F5803109F49BC0B8F4882309F4F9C054
:10098000883009F494C0FF91EF91BF91AF919F918E
:100990008F917F916F915F914F913F912F910F9028
:1009A0000FBE0F901F901895883109F488C08032CF
:1009B00051F780930C0214C0803409F49DC040F4B8
:1009C0008033B9F38833F9F680930C0285ECB0C01C
:1009D000803509F485C0883509F496C0883499F6C5
:1009E0000E941B04D0CF883909F48CC038F58837B1
:1009F00029F050F4883611F0803729F683E080938F
:100A00000E021092E70157C0883809F47BC0803984
:100A100019F0803809F0B7CF8091E701803208F0F3
:100A200071C0E091E70181E08E0F8093E701809132
:100A3000BB00F0E0E953FE4F80833DC0803B39F0BE
:100A4000E0F4803A09F479C0883A09F09CCF84E058
:100A500080930E021092C6011092C501E0913D02F2
:100A6000F0913E0209958091C50181110FC081E08E
:100A70008093C5011092A50109C0803C09F4A6CF5E
:100A8000883C09F4A3CF883B09F07DCFE091C601F3
:100A900081E08E0F8093C601F0E0EB55FE4F808120
:100AA0008093BB009091C6018091C50129C08091BF
:100AB000E9018093BB0085EC8093BC0064CF9091EA
:100AC0000B0280910A02981758F5E0910B0281E021
:100AD0008E0F80930B02F0E0E651FE4F8081E9CF4C
:100AE000E0910B0281E08E0F80930B028091BB009E
:100AF000F0E0E651FE4F808390910B0280910A0254
:100B00009817C8F285E8D8CFE0910B0281E08E0FEC
:100B100080930B028091BB00F0E0E651FE4F808392
:100B200080910D0281115CCF81E08093E80184EA1D
:100B30008093BC0010920E0226CF85EC8093BC00FF
:100B400010920E028091E701803230F4E091E701CB
:100B5000F0E0E953FE4F10826091E70170E0E09110
:100B60003B02F0913C0287EC91E009951092E7017D
:100B70000ACF10920C0234CFE5E5F2E01382128224
:100B800088EE93E0A0E0B0E084839583A683B783EA
:100B90008DE091E091838083E1E6F2E0138212829E
:100BA0008FE191E09183808380E2848380E181877B
:100BB00082E0828713860895789484B5826084BD2C
:100BC00084B5816084BD85B5826085BD85B5816051
:100BD00085BD80916E00816080936E0010928100CF
:100BE000809181008260809381008091810081608A
:100BF000809381008091800081608093800080914B
:100C0000B10084608093B1008091B00081608093D6
:100C1000B00080917A00846080937A0080917A009D
:100C2000826080937A0080917A00816080937A005C
:100C300080917A00806880937A001092C10060E011
:100C400083E00E943B0161E08DE00E943B0161E096
:100C500084E00E943B0160E082E00E943B0160E092
:100C600083E00E940D011092420210924102109204
:100C7000400210923F020E94EB018CE890E09093BA
:100C80003E0280933D028DE890E090933C02809379
:100C90003B021092660280916B02823018F098E05D
:100CA000909366028093690262E370E080E090E0D6
:100CB0000E94910160916C0281E692E00E94B00274
:100CC00068EE73E080E090E00E94910160E381E6CD
:100CD00092E00E94A703CBE4D6E4CE010197F1F79E
:100CE00060E381E692E00E94A7032197F1F760E3B9
:100CF00081E692E00E94A70383E592E00197F1F775
:100D000060E281E692E00E94A70360916602606261
:100D100040E081E692E00E94C00384E08093670295
:100D200040E06CE081E692E00E94C0030E940A0469
:100D300082E08093680240E066E081E692E00E94F3
:100D4000C00340E062E081E692E00E94C0038BE3D2
:100D50009FE10197F1F788E080936C0260E081E603
:100D600092E00E94B00260E081E00E94D70387E237
:100D700091E00E949A0361E085E00E94D70386E338
:100D800091E00E949A0368EE73E080E090E00E9498
:100D900091010E940A0460E085E00E94D7038DE380
:100DA00091E00E949A03C3E061E08C2F0E94D70378
:100DB00085E491E00E949A0364E670E080E090E0B0
:100DC0000E949101CF5FCD3079F70E940A0460E064
:100DD00081E00E94D70387E491E00E949A0300E03B
:100DE00010E0EE24E394F12C83E00E94E4000197EC
:100DF00009F0B5C00E940A0460E080E00E94D703B9
:100E000087E591E00E949A0361E080E00E94D703A9
:100E100087E691E00E949A0380910001882309F4FB
:100E20009EC02FB7F8948091430290914402A09104
:100E30004502B09146022FBF40915102509152029B
:100E400060915302709154025C016D01A41AB50ABD
:100E5000C60AD70AB601A501483E5340610571058F
:100E6000E8F08093510290935202A0935302B09302
:100E7000540280914F0290915002892B09F06AC070
:100E8000F0925002E0924F02C0914F026C2F8DE021
:100E90000E940D016C2F84E00E940D0182E00E94EF
:100EA000E400EC0180914D0290914E02C817D907E1
:100EB00099F02FB7F8948091430290914402A09149
:100EC0004502B09146022FBF8093490290934A0297
:100ED000A0934B02B0934C022FB7F8948091430239
:100EE00090914402A0914502B09146022FBF4091DB
:100EF000490250914A0260914B0270914C02841B4E
:100F0000950BA60BB70BC397A105B105F0F0809127
:100F1000470290914802C817D907B9F0D093480208
:100F2000C0934702C130D10581F41092000160E006
:100F30008DE00E940D0160E084E00E940D0162E3FB
:100F400070E080E090E00E949101D0934E02C09347
:100F50004D0262CF1092500210924F0295CF82E064
:100F60000E94E400019711F583E00E94E400892BC0
:100F7000E9F40E940A0460E083E00E94D70387E757
:100F800091E00E949A0368EE73E080E090E00E9496
:100F900091010E940A0460E081E00E94D70387E487
:100FA00091E00E949A0381E08093000101151105F0
:100FB00009F41ACF0E94000017CFEE0FFF1F059013
:100FC000F491E02D0994F894FFCF01000040001443
:100FD000005400000000008102540297032A024DD1
:100FE000023A022B020000000015048E009703C392
:100FF00001416C61726D205365637572697479008B
:1010000053797374656D004C4F4144494E47002A33
:1010100000416C61726D204163746976617465642E
:10102000004D6F74696F6E20446574656374656408
:1010300000416C61726D2054726967676572656406
:0E10400000416C61726D205265736574000092
:107E0000112484B714BE81FFF0D085E080938100F7
:107E100082E08093C00088E18093C10086E0809377
:107E2000C20080E18093C4008EE0C9D0259A86E02C
:107E300020E33CEF91E0309385002093840096BBD3
:107E4000B09BFECF1D9AA8958150A9F7CC24DD24C4
:107E500088248394B5E0AB2EA1E19A2EF3E0BF2EE7
:107E6000A2D0813461F49FD0082FAFD0023811F036
:107E7000013811F484E001C083E08DD089C08234E0
:107E800011F484E103C0853419F485E0A6D080C0E4
:107E9000853579F488D0E82EFF2485D0082F10E0AE
:107EA000102F00270E291F29000F111F8ED06801E7
:107EB0006FC0863521F484E090D080E0DECF843638
:107EC00009F040C070D06FD0082F6DD080E0C81688
:107ED00080E7D80618F4F601B7BEE895C0E0D1E017
:107EE00062D089930C17E1F7F0E0CF16F0E7DF06D8
:107EF00018F0F601B7BEE89568D007B600FCFDCFD4
:107F0000A601A0E0B1E02C9130E011968C91119780
:107F100090E0982F8827822B932B1296FA010C0160
:107F200087BEE89511244E5F5F4FF1E0A038BF0790
:107F300051F7F601A7BEE89507B600FCFDCF97BE46
:107F4000E89526C08437B1F42ED02DD0F82E2BD052
:107F50003CD0F601EF2C8F010F5F1F4F84911BD097
:107F6000EA94F801C1F70894C11CD11CFA94CF0C13
:107F7000D11C0EC0853739F428D08EE10CD085E9AC
:107F80000AD08FE07ACF813511F488E018D01DD067
:107F900080E101D065CF982F8091C00085FFFCCF94
:107FA0009093C60008958091C00087FFFCCF809118
:107FB000C00084FD01C0A8958091C6000895E0E648
:107FC000F0E098E1908380830895EDDF803219F02E
:107FD00088E0F5DFFFCF84E1DECF1F93182FE3DFCA
:107FE0001150E9F7F2DF1F91089580E0E8DFEE27F6
:047FF000FF270994CA
:027FFE00040479
:00000001FF
