:020000040000FA
:100000000C945C000C9479000C9479000C947900A9
:100010000C9479000C9479000C9479000C9479007C
:100020000C9479000C9479000C9479000C9479006C
:100030000C9479000C9479000C9479000C9479005C
:100040000C9442010C9479000C9479000C94790082
:100050000C9479000C9479000C9479000C9479003C
:100060000C9479000C947900000000080002010053
:100070000003040700000000000000000000000072
:10008000250028002B0000000000240027002A0083
:10009000040404040404040402020202020203032E
:1000A0000303030301020408102040800102040836
:1000B000102001020408102011241FBECFEFD8E049
:1000C000DEBFCDBF11E0A0E0B1E0EAE8F4E002C09D
:1000D00005900D92A036B107D9F721E0A0E6B1E076
:1000E00001C01D92A936B207E1F70E948C010C9461
:1000F00043020C94000090E0FC01EC55FF4F24916A
:1001000080579F4FFC018491882399F090E0880FDD
:10011000991FFC01EA57FF4FA591B491FC01E458E7
:10012000FF4F859194918FB7F894EC91E22BEC936B
:100130008FBF089590E0FC01E859FF4F2491FC0126
:10014000EC55FF4F3491FC01E057FF4FE491EE2353
:10015000C9F0222339F0233001F1A8F4213019F13C
:10016000223029F1F0E0EE0FFF1FE458FF4FA59178
:10017000B4918FB7F894EC91611126C030953E236D
:100180003C938FBF08952730A9F02830C9F0243060
:1001900049F7809180008F7D03C0809180008F7728
:1001A00080938000DFCF84B58F7784BDDBCF84B5AB
:1001B0008F7DFBCF8091B0008F778093B000D2CF3E
:1001C0008091B0008F7DF9CF3E2BDACF0F931F9334
:1001D000CF93DF93082F162FD42FC8E06D2F6170B7
:1001E000802F0E949A00D69561E0812F0E949A008C
:1001F00060E0812F0E949A00C15081F7DF91CF917A
:100200001F910F910895CF92DF92FF920F931F934A
:10021000CF93DF9300E511E0EC016C0188E0C80E9C
:10022000D11C60E080E00E949A00F801F0800E5F2F
:100230001F4F60E08F2D0E949A00499162E081E09B
:100240000E94E60061E080E00E949A0060E080E0A9
:100250000E949A0040E062E081E00E94E60061E0D6
:1002600080E00E949A0061E08F2D0E949A00CC15D8
:10027000DD05B9F6DF91CF911F910F91FF90DF90CF
:10028000CF9008951F920F920FB60F9211242F93C3
:100290003F938F939F93AF93BF938091650190910C
:1002A0006601A0916701B09168013091640123E07B
:1002B000230F2D3758F50196A11DB11D2093640120
:1002C0008093650190936601A0936701B0936801E4
:1002D0008091600190916101A0916201B0916301F0
:1002E0000196A11DB11D8093600190936101A093BF
:1002F0006201B0936301BF91AF919F918F913F9144
:100300002F910F900FBE0F901F90189526E8230F86
:100310000296A11DB11DD2CF789484B5826084BDB0
:1003200084B5816084BD85B5826085BD85B58160F9
:1003300085BD80916E00816080936E001092810077
:100340008091810082608093810080918100816032
:1003500080938100809180008160809380008091F3
:10036000B10084608093B1008091B000816080937F
:10037000B00080917A00846080937A0080917A0046
:10038000826080937A0080917A00816080937A0005
:1003900080917A00806880937A001092C10080E09A
:1003A0000E947B0082E00E947B0081E00E947B0033
:1003B000C0E5D1E080E6E82E81E0F82E1881229693
:1003C000812F0E947B0061E0812F0E949A00EC1631
:1003D000FD06A1F700E010E0C8EED3E088E491E06C
:1003E0000E9403012197D1F7C8EED3E080E491E0A9
:1003F0000E9403012197D1F7C8EED3E088E391E092
:100400000E9403012197D1F7C8EED3E080E391E089
:100410000E9403012197D1F7C8EED3E088E291E072
:100420000E9403012197D1F7C8EED3E080E291E06A
:100430000E9403012197D1F7C8EED3E088E191E053
:100440000E9403012197D1F7C8EED3E080E191E04B
:100450000E9403012197D1F7C8EED3E088E091E034
:100460000E9403012197D1F7C8EED3E080E091E02C
:100470000E9403012197D1F70115110509F4ACCFB2
:100480000E940000A9CFF894FFCF7E40407C02027A
:10049000027C4242427E020202027E02027E02028E
:1004A000007E7E02027E4040407E040C1424040440
:1004B00004043C4242424242423C7C42424242426A
:1004C000427C3C4240404040423C7C42427C424272
:1004D000427C3C66667E6666666603000400050034
:0A04E00006000700080009000A00EA
:107E0000112484B714BE81FFF0D085E080938100F7
:107E100082E08093C00088E18093C10086E0809377
:107E2000C20080E18093C4008EE0C9D0259A86E02C
:107E300020E33CEF91E0309385002093840096BBD3
:107E4000B09BFECF1D9AA8958150A9F7CC24DD24C4
:107E500088248394B5E0AB2EA1E19A2EF3E0BF2EE7
:107E6000A2D0813461F49FD0082FAFD0023811F036
:107E7000013811F484E001C083E08DD089C08234E0
:107E800011F484E103C0853419F485E0A6D080C0E4
:107E9000853579F488D0E82EFF2485D0082F10E0AE
:107EA000102F00270E291F29000F111F8ED06801E7
:107EB0006FC0863521F484E090D080E0DECF843638
:107EC00009F040C070D06FD0082F6DD080E0C81688
:107ED00080E7D80618F4F601B7BEE895C0E0D1E017
:107EE00062D089930C17E1F7F0E0CF16F0E7DF06D8
:107EF00018F0F601B7BEE89568D007B600FCFDCFD4
:107F0000A601A0E0B1E02C9130E011968C91119780
:107F100090E0982F8827822B932B1296FA010C0160
:107F200087BEE89511244E5F5F4FF1E0A038BF0790
:107F300051F7F601A7BEE89507B600FCFDCF97BE46
:107F4000E89526C08437B1F42ED02DD0F82E2BD052
:107F50003CD0F601EF2C8F010F5F1F4F84911BD097
:107F6000EA94F801C1F70894C11CD11CFA94CF0C13
:107F7000D11C0EC0853739F428D08EE10CD085E9AC
:107F80000AD08FE07ACF813511F488E018D01DD067
:107F900080E101D065CF982F8091C00085FFFCCF94
:107FA0009093C60008958091C00087FFFCCF809118
:107FB000C00084FD01C0A8958091C6000895E0E648
:107FC000F0E098E1908380830895EDDF803219F02E
:107FD00088E0F5DFFFCF84E1DECF1F93182FE3DFCA
:107FE0001150E9F7F2DF1F91089580E0E8DFEE27F6
:047FF000FF270994CA
:027FFE00040479
:00000001FF
