:100000000C945C000C9479000C9479000C947900A9
:100010000C9479000C9479000C9479000C9479007C
:100020000C9479000C9479000C9479000C9479006C
:100030000C9479000C9479000C9479000C9479005C
:100040000C9442010C9479000C9479000C94790082
:100050000C9479000C9479000C9479000C9479003C
:100060000C9479000C947900000000080002010053
:100070000003040700000000000000000000000072
:10008000250028002B0000000000240027002A0083
:10009000040404040404040402020202020203032E
:1000A0000303030301020408102040800102040836
:1000B000102001020408102011241FBECFEFD8E049
:1000C000DEBFCDBF11E0A0E0B1E0EAE8F4E002C09D
:1000D00005900D92A036B107D9F721E0A0E6B1E076
:1000E00001C01D92A936B207E1F70E948C010C9461
:1000F00043020C94000090E0FC01EC55FF4F24916A
:1001000080579F4FFC018491882399F090E0880FDD
:10011000991FFC01EA57FF4FA591B491FC01E458E7
:10012000FF4F859194918FB7F894EC91E22BEC936B
:100130008FBF089590E0FC01E859FF4F2491FC0126
:10014000EC55FF4F3491FC01E057FF4FE491EE2353
:10015000C9F0222339F0233001F1A8F4213019F13C
:10016000223029F1F0E0EE0FFF1FE458FF4FA59178
:10017000B4918FB7F894EC91611126C030953E236D
:100180003C938FBF08952730A9F02830C9F0243060
:1001900049F7809180008F7D03C0809180008F7728
:1001A00080938000DFCF84B58F7784BDDBCF84B5AB
:1001B0008F7DFBCF8091B0008F778093B000D2CF3E
:1001C0008091B0008F7DF9CF3E2BDACF0F931F9334
:1001D000CF93DF93082F162FD42FC8E06D2F6170B7
:1001E000802F0E949A00D69561E0812F0E949A008C
:1001F00060E0812F0E949A00C15081F7DF91CF917A
:100200001F910F910895CF92DF92FF920F931F934A
:10021000CF93DF9300E511E0EC016C0188E0C80E9C
:10022000D11C60E080E00E949A00F801F0800E5F2F
:100230001F4F60E08F2D0E949A00499162E081E09B
:100240000E94E60061E080E00E949A0060E080E0A9
:100250000E949A0040E062E081E00E94E60061E0D6
:1002600080E00E949A0061E08F2D0E949A00CC15D8
:10027000DD05B9F6DF91CF911F910F91FF90DF90CF
:10028000CF9008951F920F920FB60F9211242F93C3
:100290003F938F939F93AF93BF938091650190910C
:1002A0006601A0916701B09168013091640123E07B
:1002B000230F2D3758F50196A11DB11D2093640120
:1002C0008093650190936601A0936701B0936801E4
:1002D0008091600190916101A0916201B0916301F0
:1002E0000196A11DB11D8093600190936101A093BF
:1002F0006201B0936301BF91AF919F918F913F9144
:100300002F910F900FBE0F901F90189526E8230F86
:100310000296A11DB11DD2CF789484B5826084BDB0
:1003200084B5816084BD85B5826085BD85B58160F9
:1003300085BD80916E00816080936E001092810077
:100340008091810082608093810080918100816032
:1003500080938100809180008160809380008091F3
:10036000B10084608093B1008091B000816080937F
:10037000B00080917A00846080937A0080917A0046
:10038000826080937A0080917A00816080937A0005
:1003900080917A00806880937A001092C10080E09A
:1003A0000E947B0082E00E947B0081E00E947B0033
:1003B000C0E5D1E080E6E82E81E0F82E1881229693
:1003C000812F0E947B0061E0812F0E949A00EC1631
:1003D000FD06A1F700E010E0C8EED3E088E491E06C
:1003E0000E9403012197D1F7C8EED3E080E491E0A9
:1003F0000E9403012197D1F7C8EED3E088E391E092
:100400000E9403012197D1F7C8EED3E080E391E089
:100410000E9403012197D1F7C8EED3E088E291E072
:100420000E9403012197D1F7C8EED3E080E291E06A
:100430000E9403012197D1F7C8EED3E088E191E053
:100440000E9403012197D1F7C8EED3E080E191E04B
:100450000E9403012197D1F7C8EED3E088E091E034
:100460000E9403012197D1F7C8EED3E080E091E02C
:100470000E9403012197D1F70115110509F4ACCFB2
:0A0480000E940000A9CFF894FFCFFE
:10048A007E40407C0202027C4242427E020202021A
:10049A007E02027E0202007E7E02027E4040407E92
:1004AA00040C1424040404043C4242424242423CE6
:1004BA007C4242424242427C3C4240404040423CB2
:1004CA007C42427C4242427C3C66667E6666666646
:1004DA0003000400050006000700080009000A00DE
:00000001FF
