:020000040000FA
:100000000C9462000C948A000C948A000C948A0070
:100010000C948A000C948A000C948A000C948A0038
:100020000C948A000C948A000C948A000C948A0028
:100030000C948A000C948A000C948A000C948A0018
:100040000C9428040C948A000C948A000C948A0066
:100050000C948A000C948A000C948A000C948A00F8
:100060000C9472040C948A00000000002400270005
:100070002A0000000000250028002B0000000000DE
:1000800023002600290004040404040404040202DA
:100090000202020203030303030301020408102007
:1000A0004080010204081020010204081020000012
:1000B0000008000201000003040700000000000027
:1000C0000000910511241FBECFEFD8E0DEBFCDBFE9
:1000D00011E0A0E0B1E0E8EEFDE002C005900D9275
:1000E000A436B107D9F722E0A4E6B1E001C01D9221
:1000F000AF33B207E1F710E0C2E6D0E004C02197C9
:10010000FE010E94EC06C136D107C9F70E94B10575
:100110000C94F2060C94000008950895AF92BF92DB
:10012000CF92DF92EF92FF920F931F93CF93DF93C3
:100130006C017B018B01040F151FEB015E01AE18F2
:10014000BF08C017D10759F06991D601ED91FC9114
:100150000190F081E02DC6010995892B79F7C50141
:10016000DF91CF911F910F91FF90EF90DF90CF9093
:10017000BF90AF900895833081F028F4813099F0DA
:100180008230A9F008958730A9F08830C9F0843012
:10019000B1F4809180008F7D03C0809180008F77C3
:1001A00080938000089584B58F7784BD089584B5C9
:1001B0008F7DFBCF8091B0008F778093B000089542
:1001C0008091B0008F7DF9CF1F93CF93DF93282FBD
:1001D00030E0F901E255FF4F8491F901E656FF4FF7
:1001E000D491F901EA57FF4FC491CC23A9F0162FFF
:1001F00081110E94BB00EC2FF0E0EE0FFF1FEE58C4
:10020000FF4FA591B4918FB7F894EC91111108C0EC
:10021000D095DE23DC938FBFDF91CF911F9108959E
:10022000DE2BF8CFCF93DF9390E0FC01E656FF4F33
:1002300024918A579F4FFC0184918823D1F090E04C
:10024000880F991FFC01E859FF4FA591B491FC015B
:10025000EE58FF4FC591D49161110EC09FB7F8942D
:100260008C91E22FE0958E238C932881E223E88302
:100270009FBFDF91CF9108958FB7F894EC91E22B57
:10028000EC938FBFF6CF3FB7F89480911B0290910B
:100290001C02A0911D02B0911E0226B5A89B05C0AC
:1002A0002F3F19F00196A11DB11D3FBFBA2FA92FF5
:1002B000982F8827BC01CD01620F711D811D911DF2
:1002C00042E0660F771F881F991F4A95D1F708955E
:1002D0008F929F92AF92BF92CF92DF92EF92FF9256
:1002E0004B015C010E9443016B017C010E944301B0
:1002F0006C197D098E099F09683E7340810591053F
:10030000A8F321E0821A9108A108B10888EEC80E6E
:1003100083E0D81EE11CF11C81149104A104B104F6
:1003200029F7FF90EF90DF90CF90BF90AF909F9014
:100330008F90089508952091A501260F3327331F2C
:1003400021323105ECF42091EE01FC0190E080E0D7
:10035000243069F082E00895A091A5012191AC01BB
:100360004B575E4FA40FB52FB11D2C9301968617E6
:1003700098F38091A501680F6093A50180E008952E
:1003800081E008951092EE0181E08093ED011092DA
:10039000C80161E082E10E94E40061E083E10E9423
:1003A000E400E9EBF0E080818E7F808380818D7FA7
:1003B000808388E48093B80085E48093BC0008952E
:1003C000CF93DF9391E0909384018823B9F0C0919B
:1003D000B800D091BA008091BC008A7B8093BC00A9
:1003E00060E082E10E94E40060E083E10E94E400BA
:1003F0000E94C201D093BA00C093B800DF91CF91A0
:1004000008950895E091260280912502E81730F4BE
:10041000F0E0EC59FE4F808190E008958FEF9FEF60
:10042000089590912602809125022FEF3FEF9817B3
:1004300048F4E92FF0E0EC59FE4F208130E09F5F57
:1004400090932602C9010895809125029091260279
:10045000891B990B0895CF92DF92EF92FF920F9331
:100460001F93CF93DF937C01CB018A012091F4018C
:10047000222389F0EB016B01C40ED51ECC15DD05DE
:1004800069F06991D701ED91FC910190F081E02D27
:10049000C7010995F3CF642F0E949B01C801DF912A
:1004A000CF911F910F91FF90EF90DF90CF90089523
:1004B000CF93DF931F92CDB7DEB769832091F4010C
:1004C0002223F9F020912302203258F021E030E07D
:1004D000FC013383228390E080E00F90DF91CF9185
:1004E000089580912402E82FF0E0EB50FE4F9981AF
:1004F00090838F5F809324028093230281E090E0B9
:10050000ECCF61E0CE0101960E949B01F7CFCF9224
:10051000DF92EF92FF920F931F93CF93DF93FC0133
:10052000C48121E02093F401C093150210922402AB
:10053000109223028385682B87E292E00E94580282
:10054000D0912302D13208F092C00E9443016B0186
:100550007C018091EE01811165C082E08093EE0103
:1005600081E08093ED018FEF8093EC011092EB011D
:10057000D093EA01A5EFB1E0EAECF1E080E0D81316
:1005800085C01092C9018091C901CC0FC82BC093BE
:10059000C9018091C801813009F07CC01092C80166
:1005A0000E9443016B017C018091C9018093BB00D3
:1005B0008091F0019091F101A091F201B091F301CD
:1005C000892B8A2B8B2B99F00E9443010091F0011B
:1005D0001091F1012091F2013091F3016C197D0924
:1005E0008E099F090617170728073907E0F1809140
:1005F000BC0083FDD9CF85EC8093BC000E944301F1
:100600006B017C018091EE01823009F445C080913C
:10061000EC018F3F61F18091EC01803241F18091DA
:10062000EC0125C08091F0019091F101A091F201BF
:10063000B091F301892B8A2B8B2B09F48ACF0E946E
:1006400043010091F0011091F1012091F2013091EC
:10065000F3016C197D098E099F09061717072807F2
:10066000390708F076CF8091EF010E94E0011092E7
:100670002402109223021092F401DF91CF911F9176
:100680000F91FF90EF90DF90CF9008959D919193FF
:100690008F5F75CF85EEB0CF8091F0019091F10121
:1006A000A091F201B091F301892B8A2B8B2B09F4D5
:1006B000A9CF0E9443010091F0011091F101209116
:1006C000F2013091F3016C197D098E099F0906171B
:1006D00017072807390708F095CFC5CF90E080E0CD
:1006E0000895FC0101900020E9F73197AF01481B04
:1006F000590BBC0183E392E00C948E000F931F937F
:10070000CF938C01C62F0E9487026C2F6460C801B2
:100710000E9487026C2F6B7FC8010E94870283ECC6
:1007200090E00197F1F7CF911F910F9108950F93EA
:100730001F93CF93DF938C01D62FC42F607F642B40
:100740000E947E0380E1D89FB00111246C2BC80168
:10075000DF91CF911F910F910C947E0340E061E0F7
:1007600083E392E00E9497038BE39FE10197F1F707
:100770000895CF93DF93CDB7DEB728970FB6F894DF
:10078000DEBF0FBECDBF98E0E0E0F1E0DE011196E4
:1007900001900D929A95E1F790913B02981708F419
:1007A0008FEF90E0880F991F21E030E02C0F3D1F64
:1007B000820F931FFC016081606840E083E392E058
:1007C00028960FB6F894DEBF0FBECDBFDF91CF9154
:1007D0000C94970341E00E94970381E090E0089514
:1007E00085ED8093BC008091F0019091F101A09182
:1007F000F201B091F3010796A11DB11D23E0B6955A
:10080000A795979587952A95D1F72091BC0024FD4F
:1008100003C01092EE0108954091F0015091F10152
:100820006091F2017091F301452B462B472B69F340
:100830000097A105B10541F02AE22A95F1F700C021
:100840000197A109B109E1CF8091EF010C94E0017A
:100850001F920F920FB60F9211242F933F938F93F5
:100860009F93AF93BF938091170290911802A0912C
:100870001902B0911A023091160223E0230F2D378E
:1008800058F50196A11DB11D209316028093170201
:1008900090931802A0931902B0931A0280911B0240
:1008A00090911C02A0911D02B0911E020196A11D03
:1008B000B11D80931B0290931C02A0931D02B09364
:1008C0001E02BF91AF919F918F913F912F910F90F9
:1008D0000FBE0F901F90189526E8230F0296A11DBA
:1008E000B11DD2CF1F920F920FB60F9211242F93EA
:1008F0003F934F935F936F937F938F939F93AF93A8
:10090000BF93EF93FF938091B900887F803609F4FD
:100910004AC0F0F5883209F4A7C018F5803109F40F
:100920009BC0B8F4882309F4F9C0883009F494C056
:10093000FF91EF91BF91AF919F918F917F916F91B7
:100940005F914F913F912F910F900FBE0F901F908D
:100950001895883109F488C0803251F78093EC01F2
:1009600014C0803409F49DC040F48033B9F3883357
:10097000F9F68093EC0185ECB0C0803509F485C0B0
:10098000883509F496C0883499F60E94F003D0CFD8
:10099000883909F48CC038F5883729F050F4883646
:1009A00011F0803729F683E08093EE011092C701A1
:1009B00057C0883809F47BC0803919F0803809F0B5
:1009C000B7CF8091C701803208F071C0E091C701B4
:1009D00081E08E0F8093C7018091BB00F0E0E95564
:1009E000FE4F80833DC0803B39F0E0F4803A09F44B
:1009F00079C0883A09F09CCF84E08093EE01109290
:100A0000A6011092A501E0912102F0912202099520
:100A10008091A50181110FC081E08093A501109202
:100A2000850109C0803C09F4A6CF883C09F4A3CF16
:100A3000883B09F07DCFE091A60181E08E0F809385
:100A4000A601F0E0EB57FE4F80818093BB009091B0
:100A5000A6018091A50129C08091C9018093BB00A6
:100A600085EC8093BC0064CF9091EB018091EA010A
:100A7000981758F5E091EB0181E08E0F8093EB0120
:100A8000F0E0E653FE4F8081E9CFE091EB0181E099
:100A90008E0F8093EB018091BB00F0E0E653FE4F98
:100AA00080839091EB018091EA019817C8F285E864
:100AB000D8CFE091EB0181E08E0F8093EB01809124
:100AC000BB00F0E0E653FE4F80838091ED01811181
:100AD0005CCF81E08093C80184EA8093BC001092CF
:100AE000EE0126CF85EC8093BC001092EE01809140
:100AF000C701803230F4E091C701F0E0E955FE4FC4
:100B000010826091C70170E0E0911F02F091200215
:100B100087EA91E009951092C7010ACF1092EC0183
:100B200034CFE7E2F2E01382128288EE93E0A0E095
:100B3000B0E084839583A683B7838CE091E09183B2
:100B40008083E3E3F2E0138212828EE191E09183ED
:100B5000808387E2848380E1818782E082871386B5
:100B60000895789484B5826084BD84B5816084BD25
:100B700085B5826085BD85B5816085BD80916E003B
:100B8000816080936E00109281008091810082606C
:100B900080938100809181008160809381008091A9
:100BA00080008160809380008091B1008460809398
:100BB000B1008091B00081608093B00080917A0094
:100BC000846080937A0080917A00826080937A00BA
:100BD00080917A00816080937A0080917A008068A9
:100BE00080937A001092C100109226021092250282
:100BF00010922402109223020E94C2018CE890E01D
:100C000090932202809321028DE890E0909320023D
:100C100080931F021092380280913D02823018F0BA
:100C200098E09093380280933B0262E370E080E0AA
:100C300090E00E94680160913E0283E392E00E948E
:100C4000870268EE73E080E090E00E94680160E354
:100C500083E392E00E947E03CBE4D6E4CE010197C9
:100C6000F1F760E383E392E00E947E032197F1F7BE
:100C700060E383E392E00E947E0383E592E00197C4
:100C8000F1F760E283E392E00E947E036091380214
:100C9000606240E083E392E00E94970384E08093E7
:100CA000390240E06CE083E392E00E9497030E94E7
:100CB000AE0382E080933A0240E066E083E392E094
:100CC0000E94970340E062E083E392E00E94970372
:100CD0008BE39FE10197F1F788E080933E0260E0AB
:100CE00083E392E00E94870260E082E00E941201AA
:100CF00061E08DE00E94120161E08CE00E9412012F
:100D000080E00E94B90386E291E00E94710368EEE0
:100D100073E080E090E00E9468010E94AE03C0EBA7
:100D2000D0E00CE910E098E8E92E90E0F92E20E000
:100D3000C22E20E0D22EFE018491F801A490F7018A
:100D4000B490BB2099F181110E94BB00EB2DF0E023
:100D5000EE0FFF1FE458FF4FA591B4918C91A8228C
:100D600029F180E00E94B90386E391E00E947103BB
:100D700081E00E94B90381E491E00E94710361E087
:100D80008DE00E94E40061E08CE00E94E40068EEE7
:100D900073E080E090E00E9468010E94AE03C114FD
:100DA000D10409F4C8CF0E940000C5CF0E94AE0351
:100DB00080E00E94B9038CE491E00E94710381E01D
:100DC0000E94B90388E591E00E94710360E08DE024
:100DD0000E94E40060E0D8CFEE0FFF1F0590F49171
:100DE000E02D0994F894FFCF000040001400540057
:100DF0000000000058022B026E03010224021102BF
:100E0000020200000000EA038E006E039A014361B3
:100E10006D206269656E206B6869206761004361BF
:100E20006E682062616F202100526F207269206716
:100E3000612021005472616E6720746861693A0014
:0C0E400042696E68207468756F6E670070
:107E0000112484B714BE81FFF0D085E080938100F7
:107E100082E08093C00088E18093C10086E0809377
:107E2000C20080E18093C4008EE0C9D0259A86E02C
:107E300020E33CEF91E0309385002093840096BBD3
:107E4000B09BFECF1D9AA8958150A9F7CC24DD24C4
:107E500088248394B5E0AB2EA1E19A2EF3E0BF2EE7
:107E6000A2D0813461F49FD0082FAFD0023811F036
:107E7000013811F484E001C083E08DD089C08234E0
:107E800011F484E103C0853419F485E0A6D080C0E4
:107E9000853579F488D0E82EFF2485D0082F10E0AE
:107EA000102F00270E291F29000F111F8ED06801E7
:107EB0006FC0863521F484E090D080E0DECF843638
:107EC00009F040C070D06FD0082F6DD080E0C81688
:107ED00080E7D80618F4F601B7BEE895C0E0D1E017
:107EE00062D089930C17E1F7F0E0CF16F0E7DF06D8
:107EF00018F0F601B7BEE89568D007B600FCFDCFD4
:107F0000A601A0E0B1E02C9130E011968C91119780
:107F100090E0982F8827822B932B1296FA010C0160
:107F200087BEE89511244E5F5F4FF1E0A038BF0790
:107F300051F7F601A7BEE89507B600FCFDCF97BE46
:107F4000E89526C08437B1F42ED02DD0F82E2BD052
:107F50003CD0F601EF2C8F010F5F1F4F84911BD097
:107F6000EA94F801C1F70894C11CD11CFA94CF0C13
:107F7000D11C0EC0853739F428D08EE10CD085E9AC
:107F80000AD08FE07ACF813511F488E018D01DD067
:107F900080E101D065CF982F8091C00085FFFCCF94
:107FA0009093C60008958091C00087FFFCCF809118
:107FB000C00084FD01C0A8958091C6000895E0E648
:107FC000F0E098E1908380830895EDDF803219F02E
:107FD00088E0F5DFFFCF84E1DECF1F93182FE3DFCA
:107FE0001150E9F7F2DF1F91089580E0E8DFEE27F6
:047FF000FF270994CA
:027FFE00040479
:00000001FF
