:100000000C9458000C9480000C9480000C94800098
:100010000C9480000C9480000C9480000C94800060
:100020000C9480000C9480000C9480000C94800050
:100030000C9480000C9480000C9480000C94800040
:100040000C9468040C9480000C9436040C941004F6
:100050000C9480000C9480000C9480000C94800020
:100060000C94B2040C9480000000000025002800CD
:100070002B00040404040404040402020202020229
:10008000030303030303010204081020408001025C
:1000900004081020010204081020000000080002DB
:1000A0000100000304070000000000000000D1056B
:1000B00011241FBECFEFD8E0DEBFCDBF11E0A0E01E
:1000C000B1E0ECEAFDE002C005900D92A432B10768
:1000D000D9F722E0A4E2B1E001C01D92A039B20735
:1000E000E1F710E0C8E5D0E004C02197FE010E94CE
:1000F000CE06C735D107C9F70E940A060C94D4066C
:100100000C94000008950895AF92BF92CF92DF92B1
:10011000EF92FF920F931F93CF93DF936C017B01BC
:100120008B01040F151FEB015E01AE18BF08C0174D
:10013000D10759F06991D601ED91FC910190F081C0
:10014000E02DC6010995892B79F7C501DF91CF9183
:100150001F910F91FF90EF90DF90CF90BF90AF90E5
:100160000895FC01538D448D252F30E0842F90E0BD
:10017000821B930B541710F0CF96089501970895A2
:10018000FC01918D828D981761F0A28DAE0FBF2F6B
:10019000B11D5D968C91928D9F5F9F73928F90E0C1
:1001A00008958FEF9FEF0895FC01918D828D981730
:1001B00031F0828DE80FF11D858D90E008958FEF6D
:1001C0009FEF0895FC01918D228D892F90E0805C36
:1001D0009F4F821B91098F739927089587EE91E0B5
:1001E0000E94E20021E0892B09F420E0822F08958B
:1001F00080E090E0892B29F00E94EE0081110C94A0
:1002000000000895FC01A48DA80FB92FB11DA35AB9
:10021000BF4F2C91848D90E001968F739927848F26
:10022000A689B7892C93A089B1898C918370806449
:100230008C93938D848D981306C00288F389E02DEA
:1002400080818F7D80830895EF92FF920F931F939B
:10025000CF93DF93EC0181E0888F9B8D8C8D981379
:100260001AC0E889F989808185FF15C09FB7F89485
:10027000EE89FF896083E889F989808183708064D1
:1002800080839FBF81E090E0DF91CF911F910F911C
:10029000FF90EF900895F62E0B8D10E00F5F1F4F2B
:1002A0000F731127E02E8C8D8E110CC00FB607FC3A
:1002B000FACFE889F989808185FFF5CFCE010E94C8
:1002C0000201F1CFEB8DEC0FFD2FF11DE35AFF4F33
:1002D000F0829FB7F8940B8FEA89FB898081806256
:1002E000CFCFCF93DF93EC01888D8823B9F0AA8913
:1002F000BB89E889F9898C9185FD03C0808186FDE1
:100300000DC00FB607FCF7CF8C9185FFF2CF80812F
:1003100085FFEDCFCE010E940201E9CFDF91CF91A1
:10032000089590E0FC01E656FF4F2491FC01EA5746
:10033000FF4F3491FC01EE58FF4FE491EE23C9F0DA
:10034000222339F0233001F1A8F4213019F12230B1
:1003500029F1F0E0EE0FFF1FE859FF4FA591B4918E
:100360008FB7F894EC91611126C030953E233C93F1
:100370008FBF08952730A9F02830C9F0243049F7FD
:10038000809180008F7D03C0809180008F77809363
:100390008000DFCF84B58F7784BDDBCF84B58F7DC0
:1003A000FBCF8091B0008F778093B000D2CF809147
:1003B000B0008F7DF9CF3E2BDACF3FB7F894809114
:1003C0008D0190918E01A0918F01B091900126B581
:1003D000A89B05C02F3F19F00196A11DB11D3FBF7D
:1003E000BA2FA92F982F8827BC01CD01620F711D4C
:1003F000811D911D42E0660F771F881F991F4A9546
:10040000D1F7089520916501260F3327331F21323C
:100410003105ECF42091BD01FC0190E080E0243036
:1004200069F082E00895A09165012191AC014B5BD8
:100430005E4FA40FB52FB11D2C930196861798F32C
:1004400080916501680F6093650180E0089581E007
:1004500008951092BD0181E08093BC011092970134
:1004600061E082E10E94910161E083E10E949101DB
:10047000E9EBF0E080818E7F808380818D7F8083B7
:1004800088E48093B80085E48093BC000895CF93FE
:10049000DF9391E0909344018823B9F0C091B800B4
:1004A000D091BA008091BC008A7B8093BC0060E050
:1004B00082E10E94910160E083E10E9491010E942B
:1004C0002902D093BA00C093B800DF91CF9108956C
:1004D000CF92DF92EF92FF920F931F93CF93DF9310
:1004E000D091E60181E0D13208F09CC0C091E501D5
:1004F0000E94DD016B017C018091BD0181116CC006
:1005000082E08093BD0181E08093BC018FEF8093F6
:10051000BB011092BA01D093B901A5ECB1E0E9E9B1
:10052000F1E080E0D8138DC010929801809198017D
:10053000CC0FC82BC093980180919701813009F0AE
:1005400084C0109297010E94DD016B017C018091B3
:1005500098018093BB008091BF019091C001A09150
:10056000C101B091C201892B8A2B8B2BA1F00E9473
:10057000DD010091BF011091C0012091C1013091B6
:10058000C2016C197D098E099F09061717072807F4
:10059000390708F442C08091BC0083FDD8CF85ECB8
:1005A0008093BC000E94DD016B017C018091BD0144
:1005B000823009F44CC08091BB018F3F09F469C0BF
:1005C0008091BB01803209F466C08091BB01803309
:1005D00009F463C084E026C08091BF019091C001FE
:1005E000A091C101B091C201892B8A2B8B2B09F4F8
:1005F00083CF0E94DD010091BF011091C0012091C5
:10060000C1013091C2016C197D098E099F0906173D
:1006100017072807390708F06FCF8091BE010E94A5
:10062000470285E01092C4011092E6011092C301C6
:10063000DF91CF911F910F91FF90EF90DF90CF90BE
:1006400008959D9191938F5F6DCF85EEA9CF809195
:10065000BF019091C001A091C101B091C201892B4D
:100660008A2B8B2B09F4A2CF0E94DD010091BF01E0
:100670001091C0012091C1013091C2016C197D0916
:100680008E099F09061717072807390708F08ECF2C
:10069000C4CF80E0C7CF82E0C5CF83E0C3CF089549
:1006A000E091960180919501E81730F4F0E0EC5D5F
:1006B000FE4F808190E008958FEF9FEF0895909115
:1006C0009601809195012FEF3FEF981748F4E92F9D
:1006D000F0E0EC5DFE4F208130E09F5F909396014B
:1006E000C90108958091950190919601891B990BFC
:1006F0000895CF92DF92EF92FF920F931F93CF93C3
:10070000DF937C01CB018A012091C301222389F070
:10071000EB016B01C40ED51ECC15DD0569F06991A6
:10072000D701ED91FC910190F081E02DC701099571
:10073000F3CF642F0E940202C801DF91CF911F9175
:100740000F91FF90EF90DF90CF900895CF93DF93BC
:100750001F92CDB7DEB769832091C3012223F9F040
:100760002091E601203258F021E030E0FC01338393
:10077000228390E080E00F90DF91CF9108958091E7
:10078000C401E82FF0E0EB53FE4F998190838F5F17
:100790008093C4018093E60181E090E0ECCF61E0BA
:1007A000CE0101960E940202F7CF90E080E008950A
:1007B00085ED8093BC008091BF019091C001A09114
:1007C000C101B091C2010796A11DB11D23E0B695EC
:1007D000A795979587952A95D1F72091BC0024FD80
:1007E00003C01092BD0108954091BF015091C00116
:1007F0006091C1017091C201452B462B472B69F3D3
:100800000097A105B10541F02AE22A95F1F700C051
:100810000197A109B109E1CF8091BE010C94470273
:100820001F920F920FB60F9211242F933F934F9365
:100830005F936F937F938F939F93AF93BF93EF9348
:10084000FF9387EE91E00E940201FF91EF91BF912B
:10085000AF919F918F917F916F915F914F913F9158
:100860002F910F900FBE0F901F9018951F920F920F
:100870000FB60F9211242F938F939F93EF93FF93B3
:10088000E091F701F091F8018081E091FD01F09194
:10089000FE0182FD1BC09081809100028F5F8F73EB
:1008A00020910102821741F0E0910002F0E0E9514D
:1008B000FE4F958F80930002FF91EF919F918F9152
:1008C0002F910F900FBE0F901F9018958081F4CF3D
:1008D0001F920F920FB60F9211242F933F938F9375
:1008E0009F93AF93BF938091890190918A01A091CA
:1008F0008B01B0918C013091880123E0230F2D37BB
:1009000058F50196A11DB11D20938801809389019E
:1009100090938A01A0938B01B0938C0180918D01FB
:1009200090918E01A0918F01B09190010196A11D2F
:10093000B11D80938D0190938E01A0938F01B09390
:100940009001BF91AF919F918F913F912F910F9007
:100950000FBE0F901F90189526E8230F0296A11D39
:10096000B11DD2CF1F920F920FB60F9211242F9369
:100970003F934F935F936F937F938F939F93AF9327
:10098000BF93EF93FF938091B900887F803609F47D
:100990004AC0F0F5883209F4A7C018F5803109F48F
:1009A0009BC0B8F4882309F4F9C0883009F494C0D6
:1009B000FF91EF91BF91AF919F918F917F916F9137
:1009C0005F914F913F912F910F900FBE0F901F900D
:1009D0001895883109F488C0803251F78093BB01A3
:1009E00014C0803409F49DC040F48033B9F38833D7
:1009F000F9F68093BB0185ECB0C0803509F485C061
:100A0000883509F496C0883499F60E94D803D0CF6F
:100A1000883909F48CC038F5883729F050F48836C5
:100A200011F0803729F683E08093BD011092870191
:100A300057C0883809F47BC0803919F0803809F034
:100A4000B7CF80918701803208F071C0E0918701B3
:100A500081E08E0F809387018091BB00F0E0E9591F
:100A6000FE4F80833DC0803B39F0E0F4803A09F4CA
:100A700079C0883A09F09CCF84E08093BD01109240
:100A8000660110926501E0919301F091940109953E
:100A90008091650181110FC081E080936501109202
:100AA000450109C0803C09F4A6CF883C09F4A3CFD6
:100AB000883B09F07DCFE091660181E08E0F809345
:100AC0006601F0E0EB5BFE4F80818093BB0090916C
:100AD00066018091650129C0809198018093BB00D7
:100AE00085EC8093BC0064CF9091BA018091B901EC
:100AF000981758F5E091BA0181E08E0F8093BA0102
:100B0000F0E0E756FE4F8081E9CFE091BA0181E045
:100B10008E0F8093BA018091BB00F0E0E756FE4F44
:100B200080839091BA018091B9019817C8F285E845
:100B3000D8CFE091BA0181E08E0F8093BA01809105
:100B4000BB00F0E0E756FE4F80838091BC0181112D
:100B50005CCF81E08093970184EA8093BC0010927F
:100B6000BD0126CF85EC8093BC001092BD01809121
:100B70008701803230F4E0918701F0E0E959FE4FBF
:100B800010826091870170E0E0919101F0919201F3
:100B900087E691E00995109287010ACF1092BB0178
:100BA00034CFE7EEF1E01382128288EE93E0A0E00A
:100BB000B0E084839583A683B78324E031E031835A
:100BC000208325EC30E03587248724EC30E037871C
:100BD000268720EC30E0318B208B21EC30E0338B0A
:100BE000228B22EC30E0358B248B26EC30E0378BE7
:100BF000268B118E128E138E148EE4E8F2E013828F
:100C0000128284839583A683B78386E191E09183E2
:100C100080830895789484B5826084BD84B58160B2
:100C200084BD85B5826085BD85B5816085BD8091B7
:100C30006E00816080936E0010928100809181002F
:100C40008260809381008091810081608093810027
:100C5000809180008160809380008091B1008460E9
:100C60008093B1008091B00081608093B00080914A
:100C70007A00846080937A0080917A008260809309
:100C80007A0080917A00816080937A0080917A0066
:100C9000806880937A001092C100E091F701F09192
:100CA000F80182E08083E091F301F091F401108279
:100CB000E091F501F091F6018FEC80831092FF0135
:100CC000E091FB01F091FC0186E08083E091F90165
:100CD000F091FA01808180618083E091F901F091C7
:100CE000FA01808188608083E091F901F091FA0136
:100CF000808180688083E091F901F091FA01808120
:100D00008F7D808310929601109295011092C401FC
:100D10001092E6010E94290282E890E090939401EB
:100D20008093930183E890E09093920180939101E6
:100D300000E010E0C1E0D6E087EE91E00E94E20022
:100D4000892B11F187EE91E00E94C000883481F474
:100D5000C093C301D093E5011092C4011092E60143
:100D600068E484E892E00E94A6030E946802E4CF4F
:100D70008C3411F7C093C301D093E5011092C401E4
:100D80001092E6016CE4EDCF01151105A9F20E9465
:100D9000EE00882389F20E940000CECFEE0FFF1FE5
:0C0DA0000590F491E02D0994F894FFCF29
:100DAC000000000024018400B1007101E200C000C9
:100DBC00D40000000000A6037903D5034F0372038F
:040DCC005F0350036E
:00000001FF
