:100000000C9462000C948A000C948A000C948A0070
:100010000C948A000C948A000C948A000C948A0038
:100020000C948A000C948A000C948A000C948A0028
:100030000C948A000C948A000C948A000C948A0018
:100040000C947F040C948A000C944D040C942704A7
:100050000C948A000C948A000C948A000C948A00F8
:100060000C948A000C948A000000000024002700F1
:100070002A0000000000250028002B0000000008D6
:10008000000201000003040700000000000000005F
:1000900000000000230026002900040404040404D6
:1000A0000404020202020202030303030303010227
:1000B00004081020408001020408102001020408F6
:1000C00010200E0511241FBECFEFD8E0DEBFCDBF3C
:1000D00011E0A0E0B1E0E6E5FEE002C005900D927F
:1000E000AC38B107D9F722E0ACE8B1E001C01D920D
:1000F000AA34B207E1F710E0C2E6D0E004C02197CD
:10010000FE010E942307C136D107C9F70E94580596
:100110000C9429070C940000AF92BF92CF92DF920B
:10012000EF92FF920F931F93CF93DF936C017B01AC
:100130008B01040F151FEB015E01AE18BF08C0173D
:10014000D10759F06991D601ED91FC910190F081B0
:10015000E02DC6010995892B79F7C501DF91CF9173
:100160001F910F91FF90EF90DF90CF90BF90AF90D5
:100170000895FC01538D448D252F30E0842F90E0AD
:10018000821B930B541710F0CF9608950197089592
:10019000FC01918D828D981761F0A28DAE0FBF2F5B
:1001A000B11D5D968C91928D9F5F9F73928F90E0B1
:1001B00008958FEF9FEF0895FC01918D828D981720
:1001C00031F0828DE80FF11D858D90E008958FEF5D
:1001D0009FEF0895FC01918D228D892F90E0805C26
:1001E0009F4F821B91098F739927089585E991E0AC
:1001F0000E94EA0021E0892B09F420E0822F089573
:1002000080E090E0892B29F00E94F60081110C9487
:1002100000000895FC01A48DA80FB92FB11DA35AA9
:10022000BF4F2C91848D90E001968F739927848F16
:10023000A689B7892C93A089B1898C918370806439
:100240008C93938D848D981306C00288F389E02DDA
:1002500080818F7D80830895EF92FF920F931F938B
:10026000CF93DF93EC0181E0888F9B8D8C8D981369
:100270001AC0E889F989808185FF15C09FB7F89475
:10028000EE89FF896083E889F989808183708064C1
:1002900080839FBF81E090E0DF91CF911F910F910C
:1002A000FF90EF900895F62E0B8D10E00F5F1F4F1B
:1002B0000F731127E02E8C8D8E110CC00FB607FC2A
:1002C000FACFE889F989808185FFF5CFCE010E94B8
:1002D0000A01F1CFEB8DEC0FFD2FF11DE35AFF4F1B
:1002E000F0829FB7F8940B8FEA89FB898081806246
:1002F000CFCFCF93DF93EC01888D8823B9F0AA8903
:10030000BB89E889F9898C9185FD03C0808186FDD0
:100310000DC00FB607FCF7CF8C9185FFF2CF80811F
:1003200085FFEDCFCE010E940A01E9CFDF91CF9189
:10033000089590E0FC01E458FF4F2491FC01E25540
:10034000FF4F3491FC01E656FF4FE491EE23C9F0D4
:10035000222339F0233001F1A8F4213019F12230A1
:1003600029F1F0E0EE0FFF1FEE58FF4FA591B49179
:100370008FB7F894EC91611126C030953E233C93E1
:100380008FBF08952730A9F02830C9F0243049F7ED
:10039000809180008F7D03C0809180008F77809353
:1003A0008000DFCF84B58F7784BDDBCF84B58F7DB0
:1003B000FBCF8091B0008F778093B000D2CF809137
:1003C000B0008F7DF9CF3E2BDACFCF93DF9390E053
:1003D000FC01E255FF4F249186569F4FFC0184910A
:1003E0008823D1F090E0880F991FFC01E859FF4F56
:1003F000A591B491FC01EE58FF4FC591D4916111C4
:100400000EC09FB7F8948C91E22FE0958E238C93C9
:100410002881E223E8839FBFDF91CF9108958FB7B2
:10042000F894EC91E22BEC938FBFF6CF3FB7F894A2
:100430008091910190919201A0919301B0919401CA
:1004400026B5A89B05C02F3F19F00196A11DB11D2F
:100450003FBFBA2FA92F982F8827BC01CD01620F6B
:10046000711D811D911D42E0660F771F881F991F26
:100470004A95D1F708958F929F92AF92BF92CF92F3
:10048000DF92EF92FF924B015C010E9416026B011A
:100490007C010E9416026C197D098E099F09683E35
:1004A000734081059105A8F321E0821A9108A10803
:1004B000B10888EEC80E83E0D81EE11CF11C81143F
:1004C0009104A104B10429F7FF90EF90DF90CF9041
:1004D000BF90AF909F908F900895089590E080E036
:1004E0000895CF93DF93EC0160E08E810E94990123
:1004F00061E08E810E94990160E08E810E949901E5
:100500008BE891E00197F1F7DF91CF910895CF92B9
:10051000DF92EF92FF920F931F93CF93DF936C01C3
:100520007C0187E0E80EF11CD0E0C0E0062F10E06F
:10053000B8010C2E02C0759567950A94E2F76170B8
:10054000F70181917F010E9499012196C430D10564
:1005500079F7C601DF91CF911F910F91FF90EF9036
:10056000DF90CF900C947102CF92DF92EF92FF92C6
:100570000F931F93CF93DF93EC01F62E642F8C81A2
:100580000E9499018D818F3F19F060E00E949901CE
:100590000F2D10E08F8584FF25C06E0187E0C80E07
:1005A000D11CF12CE12CB8010E2C02C07595679579
:1005B0000A94E2F76170F60181916F010E9499013E
:1005C000FFEFEF1AFF0A88E0E816F10461F7CE01A9
:1005D000DF91CF911F910F91FF90EF90DF90CF901F
:1005E0000C947102B80184E0759567958A95E1F7DE
:1005F000CE010E9487026F2DCE01DF91CF911F9116
:100600000F91FF90EF90DF90CF900C94870240E025
:10061000682F82E392E00C94B40281E00E94070309
:100620008BE39FE10197F1F70895CF93DF93823039
:1006300029F4909141029860909341028093450281
:100640001092460280E48093470280E18093480242
:1006500080E58093490261E0809136020E94E501C5
:10066000809137028F3F19F061E00E94E50161E05F
:10067000809138020E94E501C2E3D2E09E0122533C
:1006800032408091410284FD0BC084E090E02196CD
:100690002817390744F461E08E810E94E501EECF0E
:1006A00088E090E0F4CF8BE39DE00197F1F760E004
:1006B000809136020E94990160E0809138020E9488
:1006C0009901809137028F3F19F060E00E949901F3
:1006D0008091410284FD34C063E082E392E00E9495
:1006E0008702CBE4D6E4CE010197F1F763E082E321
:1006F00092E00E9487022197F1F763E082E392E0A3
:100700000E94870283E592E00197F1F762E082E3BD
:1007100092E00E9487028091410280620E9407035A
:1007200084E0809342028CE00E9407030E940D0344
:1007300082E08093430286E0DF91CF910C9407031F
:1007400080620E9407038BE496E40197F1F78091A1
:10075000410280620E94070383E592E00197F1F76E
:100760008091410280620E940703D5CF909145029B
:10077000891710F08FEF890FE82FF0E0EE5CFD4F46
:10078000848980680C94070341E00E94B40281E0F0
:1007900090E00895FB0101900020E9F73197AF0147
:1007A000461B570BDC01ED91FC910280F381E02D9B
:1007B00009948F929F92AF92BF92EF92FF920F9304
:1007C0001F93CF93DF93CDB7DEB7A1970FB6F89401
:1007D000DEBF0FBECDBF7C01FA01CB0119A22230D2
:1007E00008F42AE08E010F5D1F4F822E912CB12C50
:1007F000A12CBF01A50194010E94E206F901CA01E2
:100800006A300CF5605DD8016E938D01232B242B8B
:10081000252B79F790E080E0109721F0BD01C7010A
:100820000E94CA03A1960FB6F894DEBF0FBECDBFDB
:10083000DF91CF911F910F91FF90EF90BF90AF90FC
:100840009F908F900895695CDECF0C94CA031F922D
:100850000F920FB60F9211242F933F934F935F93F4
:100860006F937F938F939F93AF93BF93EF93FF9378
:1008700085E991E00E940A01FF91EF91BF91AF914C
:100880009F918F917F916F915F914F913F912F91A8
:100890000F900FBE0F901F9018951F920F920FB6DA
:1008A0000F9211242F938F939F93EF93FF93E091D7
:1008B000A501F091A6018081E091AB01F091AC011E
:1008C00082FD1BC090818091AE018F5F8F7320915C
:1008D000AF01821741F0E091AE01F0E0EB56FE4F20
:1008E000958F8093AE01FF91EF919F918F912F9102
:1008F0000F900FBE0F901F9018958081F4CF1F921C
:100900000F920FB60F9211242F933F938F939F93C3
:10091000AF93BF9380918D0190918E01A0918F0133
:10092000B091900130918C0123E0230F2D3758F5C1
:100930000196A11DB11D20938C0180938D01909390
:100940008E01A0938F01B0939001809191019091BD
:100950009201A0919301B09194010196A11DB11D46
:100960008093910190939201A0939301B09394018D
:10097000BF91AF919F918F913F912F910F900FBE9B
:100980000F901F90189526E8230F0296A11DB11D08
:10099000D2CFCF92DF92EF92FF920F931F93E82F67
:1009A000F92F05C0015011092109310961F1908128
:1009B00096239417B9F305C0015011092109310993
:1009C00011F1908196239413F7CFC12CD12CE12CF7
:1009D000F12C0AC08FEFC81AD80AE80AF80A0C15D9
:1009E0001D052E053F0579F080818623841791F33C
:1009F0006C2D7D2D8E2D9F2D1F910F91FF90EF90CF
:100A0000DF90CF90089560E070E080E090E01F916B
:100A10000F91FF90EF90DF90CF900895E5E9F1E01E
:100A20001382128288EE93E0A0E0B0E08483958385
:100A3000A683B78384E091E09183808385EC90E086
:100A40009587848784EC90E09787868780EC90E098
:100A5000918B808B81EC90E0938B828B82EC90E089
:100A6000958B848B86EC90E0978B868B118E128E03
:100A7000138E148EE2E3F2E01382128286E191E09B
:100A80009183808382E084838FEF858383E08683F4
:100A900084E0878385E0808786E0818787E082879E
:100AA0001386148615861686178681E00C94150326
:100AB000789484B5826084BD84B5816084BD85B539
:100AC000826085BD85B5816085BD80916E00816045
:100AD00080936E00109281008091810082608093EB
:100AE00081008091810081608093810080918000ED
:100AF0008160809380008091B10084608093B10018
:100B00008091B00081608093B00080917A00846011
:100B100080937A0080917A00826080937A0080913D
:100B20007A00816080937A0080917A008068809357
:100B30007A001092C100E091A501F091A60182E037
:100B40008083E091A101F091A2011082E091A301C4
:100B5000F091A4018FEC80831092AD01E091A90186
:100B6000F091AA0186E08083E091A701F091A801AD
:100B7000808180618083E091A701F091A80180814C
:100B800088608083E091A701F091A801808180684E
:100B90008083E091A701F091A80180818F7D8083FF
:100BA00082E00E94150361E08CE00E94E50160E0B4
:100BB0008BE00E94E50180E00E94B6036EE171E0E7
:100BC00082E392E00E9425046EE171E085E991E004
:100BD0000E94250481E00E94B6036DE271E082E389
:100BE00092E00E9425046DE271E085E991E00E94A7
:100BF000250468EE73E080E090E00E943B020E94D2
:100C00000D0380E00E94B6036DE371E082E392E0A1
:100C10000E94250468EE73E080E090E00E943B02B1
:100C200068E471E085E991E00E94250480E00E947B
:100C3000B60362E571E082E392E00E94250481E060
:100C40000E94B60366E771E082E392E00E94250409
:100C500063E671E085E991E00E94250460ED77E0AC
:100C600080E090E00E943B020E940D03C3E0D0E0D0
:100C700093E2A92EB12C25EA222E20E0322E3AE36F
:100C8000432E512C612C712C40E0842E40E0942E98
:100C900061E08CE00E94E50160E08CE00E94990137
:100CA000CE010197F1F761E08CE00E949901C50146
:100CB0000197F1F760E08CE00E94990160E08BE021
:100CC0000E94E501E9EBF0E06491F1018491E82FE5
:100CD000F0E0EE0FFF1FE057FF4F8591949100E485
:100CE00012E42FE030E0462F0E94C9046B017C0122
:100CF000C114D104E104F10439F0FFEFCF1ADF0A87
:100D0000EF0AFF0A8FE0F8226BE771E085E991E0D6
:100D10000E942504C701B601A30192010E940407A5
:100D200069017A012AE0BA01A60185E991E00E94F1
:100D3000D90365E871E085E991E00E94250464E645
:100D400070E080E090E00E943B0268E871E085E995
:100D500091E00E94CA0380E00E94B6036AE871E055
:100D600082E392E00E9425046AE070E080E090E077
:100D70000E943B0281E00E94B6036BE771E082E3D0
:100D800092E00E9425042AE0B701A60182E392E0E6
:100D90000E94D90365E871E082E392E00E94250495
:100DA00064E670E080E090E00E943B0281149104D0
:100DB00009F46ECF0E94F600882309F469CF0E94DF
:100DC000000066CFA1E21A2EAA1BBB1BFD010DC0BD
:100DD000AA1FBB1FEE1FFF1FA217B307E407F507EB
:100DE00020F0A21BB30BE40BF50B661F771F881FC7
:100DF000991F1A9469F760957095809590959B015D
:100E0000AC01BD01CF010895052E97FB1EF400949F
:100E10000E941B0757FD07D00E94E20607FC03D083
:100E20004EF40C941B0750954095309521953F4FFB
:100E30004F4F5F4F089590958095709561957F4FC6
:100E40008F4F9F4F0895EE0FFF1F0590F491E02DF7
:060E50000994F894FFCFA5
:100E5600000000002C018C00B9007901EA00C800EE
:100E6600DC0000000000C4038C006E026D0220202E
:100E760044697374616E6365202020200020204D34
:100E86006561737572656D656E742020004D6164D1
:100E960065204279203A20004D6164652042792020
:100EA6003A004F766572416C6C546563686E69638F
:100EB600616C00204F766572416C6C2054656368E6
:100EC6006E6963616C204779616E00446973746171
:0C0ED6006E63653A00636D000D0A0000B9
:00000001FF
