:020000040000FA
:100000000C9435000C945D000C945D000C945D0024
:100010000C945D000C945D000C945D000C945D00EC
:100020000C945D000C945D000C945D000C945D00DC
:100030000C945D000C945D000C945D000C945D00CC
:100040000C940E040C945D000C94DC030C94B60329
:100050000C945D000C945D000C945D000C945D00AC
:100060000C945D000C945D00580411241FBECFEF6A
:10007000D8E0DEBFCDBF11E0A0E0B1E0EEE7F7E1F0
:1000800002C005900D92A639B107D9F722E0A6E982
:10009000B1E001C01D92AF3AB207E1F710E0C5E34D
:1000A000D0E004C02197FE010E94950BC433D10714
:1000B000C9F70E94E3040C94BD0B0C9400000F934D
:1000C0001F93CF93DF93C0919202E3E9F2E0CD3228
:1000D00011F0E2E9F2E08F0120E030E0A901D8015F
:1000E000DD918D0180ED8D0F8A3090F4AAE0B0E0B3
:1000F0000E949B0B2D2FDD0F330B440B550B260F4E
:10010000371F481F591F2053310941095109E7CFB3
:10011000A4E6B0E00E949B0BAB01BC01DF01819122
:1001200090ED980F9A30D0F38E3259F511968C914C
:10013000119790ED980F9A3020F5082E000C990B2E
:10014000C0972AE0289F8001299F100D1124012EBD
:10015000000C220B330B400F511F621F731F1296AE
:100160008C9190ED980F9A3060F4082E000C990B4A
:10017000C097092E000CAA0BBB0B480F591F6A1F12
:100180007B1FCD3239F470956095509541955F4F46
:100190006F4F7F4FCB01BA01DF91CF911F910F912C
:1001A00008954F925F926F927F928F929F92AF923B
:1001B000BF92CF92DF92EF92FF921F93CF93DF9384
:1001C000C2E9D2E0FE01C12CD12C7601119180ED63
:1001D000810F8A30A8F4AAE0B0E0A70196010E943E
:1001E0009B0BC12E110FDD08EE08FF08C60ED71EAF
:1001F000E81EF91E80E3C81AD108E108F108E6CF2D
:10020000C701B60124E630E040E050E00E94730BE5
:100210009B01AC0160EA76E881E090E00E94630B0C
:100220004B015C019E01899190ED980F9A30D0F3BB
:100230008E3221F5E901219680E1482E87E2582E81
:10024000612C712CA99180ED8A0F8A30B8F40A2EA6
:10025000000CBB0BD097A30192010E94A60B860E47
:10026000971EA81EB91EC301B2012AE030E040E08B
:1002700050E00E94730B29013A01E4CFC701B60197
:1002800024E630E040E050E00E94730B60E472E44A
:100290008FE090E00E94630B6B017C01C501B4010B
:1002A0006D5F7F4F8F4F9F4F26E030E040E050E082
:1002B0000E94730BC701B601620F731F841F951F45
:1002C000DF91CF911F91FF90EF90DF90CF90BF9083
:1002D000AF909F908F907F906F905F904F90089518
:1002E000AF92BF92CF92DF92EF92FF920F931F9344
:1002F000CF93DF936C017B018B01040F151FEB0182
:100300005E01AE18BF08C017D10759F06991D60138
:10031000ED91FC910190F081E02DC6010995892BAA
:1003200079F7C501DF91CF911F910F91FF90EF9069
:10033000DF90CF90BF90AF900895FC01538D448D16
:10034000252F30E0842F90E0821B930B541710F080
:10035000CF96089501970895FC01918D828D98178D
:1003600061F0A28DAE0FBF2FB11D5D968C91928D65
:100370009F5F9F73928F90E008958FEF9FEF089596
:10038000FC01918D828D981731F0828DE80FF11D5F
:10039000858D90E008958FEF9FEF0895FC01918D7A
:1003A000228D892F90E0805C9F4F821B91098F7373
:1003B000992708958FE991E00E94CE0121E0892BD1
:1003C00009F420E0822F089580E090E0892B29F045
:1003D0000E94DA0181110C9400000895FC01A48DA3
:1003E000A80FB92FB11DA35ABF4F2C91848D90E057
:1003F00001968F739927848FA689B7892C93A0893A
:10040000B1898C91837080648C93938D848D9813C3
:1004100006C00288F389E02D80818F7D8083089556
:10042000EF92FF920F931F93CF93DF93EC0181E044
:10043000888F9B8D8C8D98131AC0E889F9898081EB
:1004400085FF15C09FB7F894EE89FF896083E8891E
:10045000F98980818370806480839FBF81E090E010
:10046000DF91CF911F910F91FF90EF900895F62E9D
:100470000B8D10E00F5F1F4F0F731127E02E8C8D37
:100480008E110CC00FB607FCFACFE889F98980817C
:1004900085FFF5CFCE010E94EE01F1CFEB8DEC0F81
:1004A000FD2FF11DE35AFF4FF0829FB7F8940B8F99
:1004B000EA89FB8980818062CFCFCF93DF93EC0103
:1004C000888D8823B9F0AA89BB89E889F9898C913C
:1004D00085FD03C0808186FD0DC00FB607FCF7CFF8
:1004E0008C9185FFF2CF808185FFEDCFCE010E94F8
:1004F000EE01E9CFDF91CF9108952FB7F894609185
:100500009B0170919C0180919D0190919E012FBF54
:100510000895FC0101900020E9F73197AF01481BD5
:10052000590BBC018FE991E00C9470018F929F925E
:10053000AF92BF920F931F93CF93DF93CDB7DEB7E8
:10054000A1970FB6F894DEBF0FBECDBF19A24230FF
:1005500008F44AE08E010F5D1F4F842E912CB12CC0
:10056000A12CA50194010E94730BE62FB901CA01C9
:10057000EA30F4F4E05DD801EE938D01232B242BB7
:10058000252B79F790E080E0109719F0CD010E94BB
:100590008902A1960FB6F894DEBF0FBECDBFDF91E2
:1005A000CF911F910F91BF90AF909F908F90089522
:1005B000E95CE1CF4F925F926F927F928F929F9210
:1005C000AF92BF92CF92DF92EF92FF920F931F9361
:1005D000CF936B017C01742EAC019B010E945E0BDA
:1005E000882399F082E191E0CF911F910F91FF90C4
:1005F000EF90DF90CF90BF90AF909F908F907F90C3
:100600006F905F904F900C94890246015701E894D7
:10061000B7F82FEF3FEF4FE75FE7C501B4010E9446
:100620005E0B81110DC02FEF3FEF4FE75FE7C50174
:10063000B4010E94940918161CF486E191E0D4CF0D
:100640002FEF3FEF4FE75FE4C701B6010E94EC0ACE
:1006500018161CF48AE191E0C7CF2FEF3FEF4FE768
:100660005FECC701B6010E94940987FDF3CF20E03B
:1006700030E0A901C701B6010E94940910E000E032
:1006800087FF0AC06DE28FE991E00E9410028C01A1
:10069000F7FAF094F7F8F094C0E060E070E080E0E2
:1006A0009FE37C1641F020E030E040E251E40E94FC
:1006B0009909CF5FF6CFA70196010E9428092B0167
:1006C0003C010E940B0A4B015C014AE00E94960229
:1006D0007C01E00EF11ECC23C1F1C501B4010E94E2
:1006E0003A0A9B01AC01C301B2010E9427094B01E8
:1006F0005C016EE28FE991E00E941002E80EF91EA3
:10070000C15018F120E030E040E251E4C501B401ED
:100710000E94F10A2B013C010E940B0A4B01B12CF3
:10072000A12C4AE0C501B4010E949602E80EF91E10
:10073000C501B4010E943A0A9B01AC01C301B20198
:100740000E9427094B015C01DBCFC701CF911F91AC
:100750000F91FF90EF90DF90CF90BF90AF909F9060
:100760008F907F906F905F904F9008951F920F929F
:100770000FB60F9211242F933F934F935F936F9374
:100780007F938F939F93AF93BF93EF93FF938FE9E3
:1007900091E00E94EE01FF91EF91BF91AF919F9187
:1007A0008F917F916F915F914F913F912F910F901A
:1007B0000FBE0F901F9018951F920F920FB60F92B9
:1007C00011242F938F939F93EF93FF93E091AF01A9
:1007D000F091B0018081E091B501F091B60182FD08
:1007E0001BC090818091B8018F5F8F732091B901F8
:1007F000821741F0E091B801F0E0E156FE4F958F8D
:100800008093B801FF91EF919F918F912F910F905D
:100810000FBE0F901F9018958081F4CF1F920F92FA
:100820000FB60F9211242F933F938F939F93AF9303
:10083000BF9380919B0190919C01A0919D01B091EB
:100840009E0130919A0123E0230F2D3758F5019630
:10085000A11DB11D20939A0180939B0190939C014F
:10086000A0939D01B0939E01809196019091970174
:10087000A0919801B09199010196A11DB11D80939D
:10088000960190939701A0939801B0939901BF911D
:10089000AF919F918F913F912F910F900FBE0F902D
:1008A0001F90189526E8230F0296A11DB11DD2CFE7
:1008B000EFE9F1E01382128288EE93E0A0E0B0E06D
:1008C00084839583A683B78384E091E091838083BA
:1008D00085EC90E09587848784EC90E09787868705
:1008E00080EC90E0918B808B81EC90E0938B828BFD
:1008F00082EC90E0958B848B86EC90E0978B868BD6
:10090000118E128E138E148EECE3F2E04FEF5FEF38
:10091000BA014083518362837383108611861286E5
:1009200013868FEF99ECAAE9BBE3808B918BA28BA6
:10093000B38B808F918FA28FB38F80A391A3A2A33B
:10094000B3A380A791A7A2A7B3A780AB91ABA2AB9B
:10095000B3AB40AF51AF62AF73AF8FEF90E0909306
:100960007D0280937C0240938002509381026093C9
:1009700082027093830240938802509389026093AD
:100980008A0270938B02109290021092910282E080
:100990008093A1021092A2021092A3021092A402CC
:1009A0001092A5021092A6021092A7021092A8021D
:1009B0001092AA021092A9021092AC021092AB02FD
:1009C000109292020895789484B5826084BD84B5B3
:1009D000816084BD85B5826085BD85B5816085BD3A
:1009E00080916E00816080936E00109281008091F2
:1009F000810082608093810080918100816080937A
:100A00008100809180008160809380008091B1009E
:100A100084608093B1008091B00081608093B000C9
:100A200080917A00846080937A0080917A0082605D
:100A300080937A0080917A00816080937A0080911F
:100A40007A00806880937A001092C100E091AF0133
:100A5000F091B00182E08083E091AB01F091AC01B4
:100A60001082E091AD01F091AE018FEC8083109285
:100A7000B701E091B301F091B40186E08083E09189
:100A8000B101F091B201808180618083E091B10178
:100A9000F091B201808188608083E091B101F09192
:100AA000B201808180688083E091B101F091B20150
:100AB00080818F7D80838EE191E00E9489024AE0EF
:100AC0006DE070E080E090E00E94960289E391E0A2
:100AD0000E9489028CE391E00E94890289E391E0FF
:100AE0000E94890288E491E00E94890289E391E0F2
:100AF0000E94890289E391E00E948902812C912C55
:100B0000540100E010E092E0392E222423940E9448
:100B10007D026B017C01712C0E947D026C197D09A4
:100B20008E099F09683E73408105910508F461C1F3
:100B3000772009F46DC0C0904C02D0904D02E09037
:100B40004E02F0904F024090540250905502609037
:100B50005602709057028091880290918902A0916C
:100B60008A02B0918B028F3F9F4FAF4FBF4F11F062
:100B70000E947D02FFEFCF16F9ECDF06FAE9EF06DF
:100B8000FBE3FF0609F42EC3C701B6010E943C0A2D
:100B900020E034E244E759E40E9499096B017C01AA
:100BA000C301B2010E943C0A20E034E244E759E468
:100BB0000E9499092B013C0180E891E00E94890282
:100BC00020E030E04AE754E4C301B2010E949409F6
:100BD000811103C0412C512C320146E0C301B20106
:100BE0000E94DA028BE891E00E94890220E030E066
:100BF0004AE754E4C701B6010E949409811103C079
:100C0000C12CD12C760146E0C701B6010E94DA0260
:100C10004AE0C501B4010E94960289E391E00E9476
:100C200089020115110509F472CF0E94DA018823A7
:100C300009F46DCF0E9400006ACFCA3209F405C1E1
:100C4000CC3209F0BBC2809190028C278093900235
:100C5000FCC09091A202F0E0EE56FD4F1082D091C0
:100C60009102DD2309F46AC120919202822F022EA3
:100C7000000C990B3FEB320F363008F0EBC0C797F2
:100C80008295807F90919302292F092E000C330BBF
:100C90004FEB490F463008F0E5C027533109820F6A
:100CA00090919002891340C1D091A402DD2309F4F0
:100CB000CFC08091A9029091AA0201969093AA02B6
:100CC0008093A9028091840290918502A09186026E
:100CD000B09187028093800290938102A093820258
:100CE000B093830280918C0290918D02A0918E022C
:100CF000B0918F028093880290938902A0938A0218
:100D0000B0938B028091A102882309F4B4C0813092
:100D100009F060C08091400290914102A09142028E
:100D2000B091430280933C0290933D02A0933E0217
:100D3000B0933F028091480290914902A0914A02EB
:100D4000B0914B028093440290934502A0934602D7
:100D5000B09347028091500290915102A0915202AB
:100D6000B091530280934C0290934D02A0934E0297
:100D7000B0934F028091580290915902A0915A026B
:100D8000B0915B028093540290935502A093560257
:100D9000B09357028091680290916902A0916A0213
:100DA000B0916B028093640290936502A0936602F7
:100DB000B09367028091700290917102A0917202CB
:100DC000B091730280936C0290936D02A0936E02B7
:100DD000B0936F028091A2028F5F8093A202109263
:100DE000A30281E0CA3209F080E080939102D11120
:100DF0007D2E8FE991E00E94CE01892B09F48CCEE3
:100E00008FE991E00E94AC01C82F8091A5029091DA
:100E1000A602A091A702B091A8020196A11DB11D42
:100E20008093A5029093A602A093A702B093A80274
:100E3000C43209F4B6C1E091A302C5320CF0FDCE74
:100E4000CA3019F0CD3009F0B9C1EF3008F401CF44
:100E5000D0E0C0CF2156263018F48755910910CF25
:100E6000C0970ECF9156963018F42755310917CFF9
:100E70002053310914CF8091600290916102A091BA
:100E80006202B091630280935C0290935D02A09332
:100E90005E02B0935F028091400290914102A09166
:100EA0004202B091430280933C0290933D02A09392
:100EB0003E02B0933F028091500290915102A09166
:100EC0005202B091530280934C0290934D02A09332
:100ED0004E02B0934F028091580290915902A09116
:100EE0005A02B0915B028093540290935502A093F2
:100EF0005602B093570280917E0290917F029093A8
:100F00007D0280937C028091780290917902A09179
:100F10007A02B0917B028093740290937502A09341
:100F20007602B093770256CF8091AB029091AC02DB
:100F300001969093AC028093AB028ACF91111CC0B2
:100F400042E952E0A4E7B1E0CA01FC012191CF01DE
:100F5000222309F450C13D912317B9F3AAE7B1E068
:100F6000FA018191AF01882309F448C19D91891745
:100F7000B9F33092A1022ECFE091A102E23009F440
:100F800067CF80919202882309F462CF20E2E29F2A
:100F9000F0011124E92B3197E932F10508F01ACF5D
:100FA000EC52F84F0C94950B1A0835084A0865085E
:100FB0007008AA08B108BB08C608EA06EA06EA06ED
:100FC000EA06EA06EA06EA06EA06EA06EA06EA06A1
:100FD000EA06EA06EA06EA06EA06EA06EA06EA0691
:100FE000EA06EA06EA06EA061A082F0835084A0859
:100FF000650870088B089608FD07E2E9F2E020E03A
:1010000030E0A901519080ED850D8A3008F099C03B
:10101000AAE0B0E00E949B0B252D550C330B440B2E
:10102000550B260F371F481F591F205331094109FF
:101030005109E8CF0E945F00609340027093410223
:1010400080934202909343020E947D026093840247
:10105000709385028093860290938702BBCE91E0C5
:10106000813409F47BC090E079C00E94D100609384
:1010700050027093510280935202909353020E9447
:101080007D0260938C0270938D0280938E02909308
:101090008F02A0CE833509F0DBCE80915002909173
:1010A0005102A0915202B0915302B095A095909533
:1010B00081959F4FAF4FBF4F809350029093510245
:1010C000A0935202B093530285CE0E94D100609348
:1010D00058027093590280935A0290935B027ACE21
:1010E000873509F0B5CE8091580290915902A091B0
:1010F0005A02B0915B02B095A095909581959F4F53
:10110000AF4FBF4F8093580290935902A0935A0259
:10111000B0935B025FCE0E945F00609368027093A1
:10112000690280936A0290936B0254CE0E945F0022
:1011300060937002709371028093720290937302B5
:1011400049CE209348023093490240934A0250937B
:101150004B0240CE91E081330CF485CF9093A402F2
:1011600039CE82E992E00E940109992790937F028B
:1011700080937E022FCE0E945F006093780270936E
:10118000790280937A0290937B0224CE0E945F00C2
:101190006093600270936102809362029093630295
:1011A00019CE1092A3021092A202109290023092D5
:1011B000A102109291021092A4021BCEEE3040F4D4
:1011C00081E08E0F8093A302F0E0EE56FD4FC083C6
:1011D0008091910281110DCE80919002C827C09319
:1011E000900207CEC12CD12C8AE7E82E84E4F82E99
:1011F00026013701E1CC2092A102ECCD1092A10290
:10120000E9CDFC0188279927E89421912032E9F360
:10121000293010F02E30C8F32B3241F02D3239F442
:10122000689404C00E941F09820F911D21912053D0
:101230002A30C0F31EF4909581959F4F08957AE06F
:10124000979F902D879F802D910D112408955058C0
:10125000BB27AA270E943F090C94B20A0E94A40A45
:1012600038F00E94AB0A20F039F49F3F19F426F4BD
:101270000C94A10A0EF4E095E7FB0C949B0AE92F6D
:101280000E94C30A58F3BA176207730784079507C9
:1012900020F079F4A6F50C94E50A0EF4E0950B2EF7
:1012A000BA2FA02D0B01B90190010C01CA01A001B8
:1012B0001124FF27591B99F0593F50F4503E68F113
:1012C0001A16F040A22F232F342F4427585FF3CF54
:1012D000469537952795A795F0405395C9F77EF425
:1012E0001F16BA0B620B730B840BBAF09150A1F06E
:1012F000FF0FBB1F661F771F881FC2F70EC0BA0FF4
:10130000621F731F841F48F4879577956795B7957B
:10131000F7959E3F08F0B0CF9395880F08F0992776
:10132000EE0F9795879508950E94770A08F481E05B
:1013300008950E94AD090C94B20A0E94AB0A58F0BD
:101340000E94A40A40F029F45F3F29F00C949B0A04
:1013500051110C94E60A0C94A10A0E94C30A68F386
:101360009923B1F3552391F3951B550BBB27AA275E
:1013700062177307840738F09F5F5F4F220F331F98
:10138000441FAA1FA9F335D00E2E3AF0E0E832D060
:1013900091505040E695001CCAF72BD0FE2F29D063
:1013A000660F771F881FBB1F261737074807AB0735
:1013B000B0E809F0BB0B802DBF01FF2793585F4FAA
:1013C0003AF09E3F510578F00C949B0A0C94E60A83
:1013D0005F3FE4F3983ED4F3869577956795B7958C
:1013E000F7959F5FC9F7880F911D9695879597F997
:1013F0000895E1E0660F771F881FBB1F6217730710
:101400008407BA0720F0621B730B840BBA0BEE1F24
:1014100088F7E09508950E94CB0A88F09F5798F0CE
:10142000B92F9927B751B0F0E1F0660F771F881FE9
:10143000991F1AF0BA95C9F714C0B13091F00E9403
:10144000E50AB1E008950C94E50A672F782F882704
:10145000B85F39F0B93FCCF3869577956795B3952A
:10146000D9F73EF490958095709561957F4F8F4F99
:101470009F4F0895E89409C097FB3EF4909580959E
:10148000709561957F4F8F4F9F4F9923A9F0F92F4A
:1014900096E9BB279395F695879577956795B795C8
:1014A000F111F8CFFAF4BB0F11F460FF1BC06F5FAE
:1014B0007F4F8F4F9F4F16C0882311F096E911C0C0
:1014C000772321F09EE8872F762F05C0662371F0E1
:1014D00096E8862F70E060E02AF09A95660F771FF5
:1014E000881FDAF7880F9695879597F90895990FD1
:1014F0000008550FAA0BE0E8FEEF16161706E807DE
:10150000F907C0F012161306E407F50798F0621BFE
:10151000730B840B950B39F40A2661F0232B242BD3
:10152000252B21F408950A2609F4A140A6958FEFF2
:10153000811D811D089597F99F6780E870E060E044
:1015400008959FEF80EC089500240A94161617065C
:1015500018060906089500240A94121613061406A4
:1015600005060895092E0394000C11F4882352F007
:10157000BB0F40F4BF2B11F460FF04C06F5F7F4FBF
:101580008F4F9F4F089557FD9058440F551F59F0A6
:101590005F3F71F04795880F97FB991F61F09F3F60
:1015A00079F087950895121613061406551FF2CF89
:1015B0004695F1DF08C0161617061806991FF1CFD9
:1015C00086957105610508940895E894BB27662700
:1015D0007727CB0197F908950E94770A08F48FEFD7
:1015E00008950E94040B0C94B20A0E94A40A38F0D9
:1015F0000E94AB0A20F0952311F00C949B0A0C94E6
:10160000A10A11240C94E60A0E94C30A70F3959F64
:10161000C1F3950F50E0551F629FF001729FBB27E9
:10162000F00DB11D639FAA27F00DB11DAA1F649F85
:101630006627B00DA11D661F829F2227B00DA11D38
:10164000621F739FB00DA11D621F839FA00D611DBE
:10165000221F749F3327A00D611D231F849F600DDF
:10166000211D822F762F6A2F11249F5750409AF008
:10167000F1F088234AF0EE0FFF1FBB1F661F771F94
:10168000881F91505040A9F79E3F510580F00C945F
:101690009B0A0C94E60A5F3FE4F3983ED4F38695E8
:1016A00077956795B795F795E7959F5FC1F7FE2BFF
:1016B000880F911D9695879597F908950E94770A4E
:1016C000880B990B0895DB018F939F930E949B0BCE
:1016D000BF91AF91A29F800D911DA39F900DB29FCE
:1016E000900D11240895A1E21A2EAA1BBB1BFD0127
:1016F0000DC0AA1FBB1FEE1FFF1FA217B307E407F1
:10170000F50720F0A21BB30BE40BF50B661F771F48
:10171000881F991F1A9469F7609570958095909528
:101720009B01AC01BD01CF010895EE0FFF1F059095
:10173000F491E02D09940E94AE0BA59F900DB49FEB
:10174000900DA49F800D911D11240895B7FF0C9456
:101750009B0B0E949B0B821B930B0895A29FB001D1
:10176000B39FC001A39F700D811D1124911DB29FD5
:10177000700D811D1124911D0895F894FFCF000074
:101780000000100270019D015D02CE01AC01C0019C
:101790006E616E00696E66006F76660053696D70EB
:1017A0006C652054696E79475053206C6962726190
:1017B000727920762E20000D0A0054657374696ECC
:1017C00067204750530044657369676E6564206203
:1017D000793A207777772E546865456E67696E652C
:1017E0006572696E6750726F6A656374732E636F9A
:1017F0006D004750524D43004750474741004B69E9
:101800006E6820646F203D20002C20566920646F94
:04181000203D200057
:107E0000112484B714BE81FFF0D085E080938100F7
:107E100082E08093C00088E18093C10086E0809377
:107E2000C20080E18093C4008EE0C9D0259A86E02C
:107E300020E33CEF91E0309385002093840096BBD3
:107E4000B09BFECF1D9AA8958150A9F7CC24DD24C4
:107E500088248394B5E0AB2EA1E19A2EF3E0BF2EE7
:107E6000A2D0813461F49FD0082FAFD0023811F036
:107E7000013811F484E001C083E08DD089C08234E0
:107E800011F484E103C0853419F485E0A6D080C0E4
:107E9000853579F488D0E82EFF2485D0082F10E0AE
:107EA000102F00270E291F29000F111F8ED06801E7
:107EB0006FC0863521F484E090D080E0DECF843638
:107EC00009F040C070D06FD0082F6DD080E0C81688
:107ED00080E7D80618F4F601B7BEE895C0E0D1E017
:107EE00062D089930C17E1F7F0E0CF16F0E7DF06D8
:107EF00018F0F601B7BEE89568D007B600FCFDCFD4
:107F0000A601A0E0B1E02C9130E011968C91119780
:107F100090E0982F8827822B932B1296FA010C0160
:107F200087BEE89511244E5F5F4FF1E0A038BF0790
:107F300051F7F601A7BEE89507B600FCFDCF97BE46
:107F4000E89526C08437B1F42ED02DD0F82E2BD052
:107F50003CD0F601EF2C8F010F5F1F4F84911BD097
:107F6000EA94F801C1F70894C11CD11CFA94CF0C13
:107F7000D11C0EC0853739F428D08EE10CD085E9AC
:107F80000AD08FE07ACF813511F488E018D01DD067
:107F900080E101D065CF982F8091C00085FFFCCF94
:107FA0009093C60008958091C00087FFFCCF809118
:107FB000C00084FD01C0A8958091C6000895E0E648
:107FC000F0E098E1908380830895EDDF803219F02E
:107FD00088E0F5DFFFCF84E1DECF1F93182FE3DFCA
:107FE0001150E9F7F2DF1F91089580E0E8DFEE27F6
:047FF000FF270994CA
:027FFE00040479
:00000001FF
